:020000040800F2
:10000000A8150024AD0200088138000881370008D7
:1000100079380008E10300084944000800000000A6
:10002000000000000000000000000000E13A0008AD
:10003000E90300080000000089380008E93A0008D8
:10004000C7020008C7020008C7020008C70200086C
:10005000C7020008C7020008C7020008C70200085C
:10006000C7020008C7020008C7020008C70200084C
:10007000C7020008C7020008C7020008C70200083C
:10008000C7020008C7020008C7020008C70200082C
:10009000C7020008C7020008C7020008C70200081C
:1000A000C7020008C7020008C7020008C70200080C
:1000B000C7020008C7020008C7020008C7020008FC
:1000C000C7020008C7020008C7020008C7020008EC
:1000D000C7020008C7020008C7020008C7020008DC
:1000E000C7020008C702000800000000C70200089D
:1000F000C7020008C7020008C7020008C7020008BC
:10010000C7020008C7020008C7020008C7020008AB
:10011000C7020008C7020008C7020008C70200089B
:10012000C7020008C7020008C7020008C70200088B
:10013000C7020008C7020008C7020008C70200087B
:1001400000000000000000000000000000000000AF
:10015000C7020008C7020008C7020008C70200085B
:10016000C7020008C7020008C7020008C70200084B
:10017000C7020008C7020008C7020008C70200083B
:10018000C7020008C7020008C7020008C70200082B
:10019000C7020008C7020008C7020008C70200081B
:1001A000C7020008C7020008C7020008C70200080B
:1001B000C7020008C7020008C7020008C7020008FB
:1001C000C7020008C7020008C7020008C7020008EB
:1001D000C7020008C7020008C7020008C7020008DB
:1001E000C7020008C7020008C7020008C7020008CB
:1001F000C7020008C7020008C7020008C7020008BB
:10020000C7020008C7020008C7020008C7020008AA
:10021000C7020008C7020008C7020008C70200089A
:10022000C7020008C7020008C7020008000000005B
:10023000C7020008C702000800000000C70200084B
:10024000C7020008C7020008C7020008C70200086A
:10025000C7020008C7020008C7020008C70200085A
:10026000C7020008C7020008C7020008C70200084A
:10027000C7020008C7020008C7020008000000000B
:10028000C7020008C7020008C702000800000000FB
:1002900000000000C7020008DFF80CD000F08CF866
:1002A00000480047A1440008A815002406488047DC
:1002B00006480047FEE7FEE7FEE7FEE7FEE7FEE74B
:1002C000FEE7FEE7FEE7FEE7B93B000899020008FB
:1002D0002DE9F05F0546002092469B46884606467B
:1002E000814640241BE0284641464746224600F00E
:1002F00053F853465A46C01A914110D31146184636
:10030000224600F03AF82D1A67EB01084F462246C4
:100310000120002100F031F817EB00094E41201EAA
:10032000A4F10104DFDC484631462A464346BDE8D5
:10033000F09F40EA01039B0703D009E008C9121FA0
:1003400008C0042AFAD203E011F8013B00F8013B8F
:10035000521EF9D27047D2B201E000F8012B491EBB
:10036000FBD270470022F6E710B513460A46044652
:100370001946FFF7F0FF204610BD202A04DB203A83
:1003800000FA02F1002070479140C2F1200320FAE8
:1003900003F3194390407047202A04DB203A21FAE6
:1003A00002F00021704721FA02F3D040C2F120028E
:1003B0009140084319467047064C074D06E0E06837
:1003C00040F0010394E8070098471034AC42F6D39C
:1003D000FFF766FFA8460008C846000800000000B6
:1003E000FEE7000000000000704700000000000071
:1003F000EFF3108072B600BFFEE7000000000000BF
:100400002DE9F04740F28057C2F200473B78002BBD
:1004100038D0894640F200518246C2F20041C0F312
:10042000C620085CCAF30221C840C0072AD040F2A7
:100430004C049046C2F2004407F1180608E000BFE1
:1004400056E8000F46E8001202B1F9E785421DD0D8
:10045000BD6901F059F90146A842F1D20123D4E85F
:100460004F0FC4E8423F02B1F9E70006E8D138690E
:10047000002301303861D4E84F0FC4E8423F02B195
:10048000F9E7DDE70120BDE8F08700BF5246EFF352
:100490000580C0F20802002808BF1FFA8AF243460E
:1004A00002F140704A46BDE8F04700F0D1B80000C4
:1004B0002DE9F04F83B0002982464FF0000000F094
:1004C000C4809146802A00F2C08040F28056C2F279
:1004D00000463078002837D0CAF3C620884640F25C
:1004E0000051C2F20041085CCAF30221C840C007B3
:1004F0002AD040F24C0B06F11807C2F2004B07E07D
:1005000057E8000F47E8004101B1F9E785421FD0E5
:10051000B56901F0F9F80446A842F1D25A46012320
:10052000D2E84F0FC2E8413F01B1F9E70006E7D139
:1005300030695A46013030610023D2E84F0FC2E8DB
:10054000413F01B1F9E7DBE7012003B0BDE8F08FDF
:100550005546EFF30580C0F20805002808BF1FFAD2
:100560008AF5B9F1000F11D0B9F1080F18D80020A1
:100570004146CDE9000068464A46FFF7DAFE09F039
:10058000070045EA004000F140704FE000220023E0
:100590002846214603B0BDE8F04F00F059B800BF2F
:1005A000701CD0E84F1F4A1CC0E8432F03B1F8E786
:1005B0004FF4E020D8F8002000EA0146D8F80430D3
:1005C00045EA0600214600F1807000F041F8A8B32A
:1005D000A9F108094FF60170B9F1090F46EA000ABE
:1005E00008F1080511D300BF2E6850466F682146F8
:1005F00032463B4600F02CF820B3A9F10809083533
:10060000B9F1090F0AF1010AEED200202946CDE91D
:10061000000068464A46FFF78CFEFF20C7F6FF50F1
:1006200000EA0A0040EA092040F00070009A019BAD
:10063000214603B0BDE8F04F00F00AB8002003B037
:10064000BDE8F08F0020CDE9006703B0BDE8F08F72
:100650002DE9F0474FF080574FF0005607EAD107D9
:1006600040F2805C9846C2F2004C06EA92064FF0D7
:100670008044384391468A460CF1040151E8005FFA
:100680006B1C41E8003202B1F8E704EA580230433B
:1006900005F4707340EA020605F03F0040F2001EC8
:1006A00046EA8332C2F2004E42F040620EEB001383
:1006B00003F10C0454E8007FBD0103D3BFF32F8F77
:1006C000002706E007F00047174344E8007303B132
:1006D000F0E77A0100F1DC8051E8000F421C41E8AC
:1006E000002303B1F8E700F4707200F03F0046EA1F
:1006F00082320EEB001342F0406203F10C0454E826
:10070000007FBD0103D3BFF32F8F002706E007F062
:100710000047174344E8007303B1F0E77A0100F1A2
:10072000B78051E8000F421C41E8002303B1F8E70D
:1007300000F4707200F03F0046EA82320EEB0013C4
:1007400042F0406203F10C0454E8007FBD0103D382
:10075000BFF32F8F002706E007F00047174344E858
:10076000007303B1F0E77A0100F1928051E8000FC5
:10077000421C41E8002303B1F8E700F4707200F076
:100780003F0046EA82320EEB001342F0406203F172
:100790000C0454E8007FBD0103D3BFF32F8F002763
:1007A00006E007F00047174344E8007303B1F0E7A1
:1007B0007A0100F16D8051E8000F421C41E80023EE
:1007C00003B1F8E700F4707200F03F0046EA8232AD
:1007D0000EEB001342F0406203F10C0454E8007F7A
:1007E000BD0103D3BFF32F8F002706E007F00047BA
:1007F000174344E8007303B1F0E77A0100F1488041
:1008000051E8000F421C41E8002303B1F8E700F46F
:10081000707200F03F0046EA82320EEB001342F0A5
:10082000406203F10C0454E8007FBD0103D3BFF321
:100830002F8F002706E007F00047174344E80073B6
:1008400003B1F0E77A0123D451E8000F421C41E8DC
:10085000002303B1F8E700F4707100F03F0046EAAE
:1008600081310EEB001241F0406102F10C0454E8BA
:10087000007FBB0103D3BFF32F8F002706E007F0F3
:1008800000470F4344E8007202B1F0E779012DD52B
:1008900087F0044105010EEB001001F000422AF040
:1008A000004329F0004628F0004713444EF8053075
:1008B000931943603A44826054E8002F920103D2B6
:1008C000BFF32F8F002004E044E8001303B1F3E7E7
:1008D000012058B10CF1080050E8001F4A1C40E804
:1008E000002303B1F8E70120BDE8F0870CF10C000C
:1008F00050E8001F4A1C40E8002303B1F8E700203D
:10090000BDE8F08700000000F0B50023FE2998BF85
:10091000FE2A01D91846F0BD91420DD840F2005C84
:10092000C307C2F2004C49D1830700F18580430719
:1009300000F1C680000701D40120F0BD0CEBD10707
:1009400001F007060123481C97F8605003FA06F6E9
:10095000904225EA060687F86060DBD80CEBD007EA
:1009600000F00706881C03FA06F697F860509042DC
:1009700025EA060687F86060CCD80CEBD00700F0BB
:1009800007060123C81C97F8605003FA06F6904248
:1009900025EA060687F86060BCD80CEBD00700F0AB
:1009A0000700043103FA00F097F86060914226EAEC
:1009B000000087F86000C1D9ACE700BF4FF0010E1E
:1009C0000B4600BFDD0803F007065C1C0EFA06F6B6
:1009D0001CF80570944227EA06060CF80560A3D8B7
:1009E000E50804F007069C1C0EFA06F61CF80570D4
:1009F000944227EA06060CF8056095D8E50804F04D
:100A00000706DC1C0EFA06F61CF80570944227EA6D
:100A100006060CF805603FF687AFE50804F007040A
:100A200004330EFA04F41CF80560934226EA040429
:100A30000CF80540C6D977E74FF0010E0B4600BF12
:100A40000CEBD30503F007065C1C0EFA06F695F8CE
:100A50002070944227EA060685F820603FF667AFCB
:100A60000CEBD40504F007069C1C0EFA06F695F86C
:100A70002070944227EA060685F820603FF657AFBB
:100A80000CEBD40504F00706DC1C0EFA06F695F80C
:100A90002070944227EA060685F820603FF647AFAB
:100AA0000CEBD40504F0070404330EFA04F495F8B3
:100AB0002060934226EA040485F82040C0D936E736
:100AC0004FF0010E0B4600BF0CEBD30503F00706F9
:100AD0005C1C0EFA06F695F84070944227EA06066A
:100AE00085F840603FF626AF0CEBD40504F007060E
:100AF0009C1C0EFA06F695F84070944227EA06060A
:100B000085F840603FF616AF0CEBD40504F00706FD
:100B1000DC1C0EFA06F695F84070944227EA0606A9
:100B200085F840603FF606AF0CEBD40504F00704EF
:100B300004330EFA04F495F84060934226EA040464
:100B400085F84040C0D9F5E62DE9F04F81B040F27C
:100B5000805B40F20055C2F2004BC2F2004588466D
:100B6000814600208BF8000080212846FFF7FAFB21
:100B700044F254601821C0F600004FF6FF730338AA
:100B800041F2210210F8037F83EA07231FB282EAB1
:100B90004306B7F1FF3FC8BF5E0033B282EA4607A3
:100BA000B3F1FF3FC8BF77003BB282EA4706B3F11B
:100BB000FF3FC8BF7E0033B282EA4607B3F1FF3F72
:100BC000C8BF77003BB282EA4706B3F1FF3FC8BF18
:100BD0007E0033B282EA4607B3F1FF3FC8BF770019
:100BE0003BB282EA4706B3F1FF3FC8BF7E0033B293
:100BF00082EA4607B3F1FF3FC8BF7700437887EA30
:100C000003231FB282EA4306B7F1FF3FC8BF5E006D
:100C100033B282EA4607B3F1FF3FC8BF77003BB269
:100C200082EA4706B3F1FF3FC8BF7E0033B282EAD3
:100C30004607B3F1FF3FC8BF77003BB282EA4706E1
:100C4000B3F1FF3FC8BF7E0033B282EA4607B3F17B
:100C5000FF3FC8BF77003BB282EA4706B3F1FF3FD0
:100C6000C8BF7E0033B282EA4607B3F1FF3F837804
:100C7000C8BF770087EA03231FB282EA4306B7F1B1
:100C8000FF3FC8BF5E0033B282EA4607B3F1FF3FC1
:100C9000C8BF77003BB282EA4706B3F1FF3FC8BF47
:100CA0007E0033B282EA4607B3F1FF3FC8BF770048
:100CB0003BB282EA4706B3F1FF3FC8BF7E0033B2C2
:100CC00082EA4607B3F1FF3FC8BF77003BB282EA32
:100CD0004706B3F1FF3FC8BF7E0037B282EA460342
:100CE000B7F1FF3FC8BF730003397FF44BAF42F247
:100CF0006B70DBF82010CEF2A510814240F0C68068
:100D000099B2BBF80200884240F0C280DBF81C00B8
:100D1000002800F10100CBF81C0000F0BE8040F27A
:100D200000100021C2F2004006E000BF01F5807112
:100D3000B1F5806F00F09A844218D3685F0135D412
:100D4000D3695F0138D4D36A5F013BD4D36B5F01B1
:100D50003ED4D36C5F0141D4D36D5F0144D4D36ED4
:100D60005F0147D4D36F5F014AD4D2F88C305F0162
:100D70004DD4D2F89C305F0151D4D2F8AC305F0131
:100D800055D4D2F8BC305F0159D4D2F8CC305F01D1
:100D90005DD4D2F8DC305F0161D4D2F8EC305F0171
:100DA00065D4D2F8FC305F01C0D569E023F0406320
:100DB000D360D3695F01C6D523F04063D361D36AA2
:100DC0005F01C3D523F04063D362D36B5F01C0D50D
:100DD00023F04063D363D36C5F01BDD523F0406340
:100DE000D364D36D5F01BAD523F04063D365D36E6E
:100DF0005F01B7D523F04063D366D36F5F01B4D5ED
:100E000023F04063D367D2F88C305F01B1D523F073
:100E10004063C2F88C30D2F89C305F01ADD523F02E
:100E20004063C2F89C30D2F8AC305F01A9D523F002
:100E30004063C2F8AC30D2F8BC305F01A5D523F0D6
:100E40004063C2F8BC30D2F8CC305F01A1D523F0AA
:100E50004063C2F8CC30D2F8DC305F019DD523F07E
:100E60004063C2F8DC30D2F8EC305F0199D523F052
:100E70004063C2F8EC30D2F8FC305F017FF556AF2A
:100E800023F04063C2F8FC3050E700BFCBF82000ED
:100E9000ABF802300120CBF81C0040F2001040F209
:100EA0004C04C2F200404FF4806100268BF80160D0
:100EB000CBE90166C2F20044CBF80C60FFF752FAAE
:100EC00000F032FC824618B100F026FC01E000BFC1
:100ED0000020CBE90460CBF818602670BAF1000F4F
:100EE00000F0C0835FEAC97000F0A28000200121F9
:100EF000C30800F00702461C01FA02FCEF5C06F092
:100F00000704F60847EA0C07EF5401FA04F3AF5D53
:100F1000841CE2083B43AB5504F00703AF5C01FAC5
:100F200003F33B43C71C07F00706FF08AB5401FA65
:100F300006F2EB5D061DF4081A43EA5506F00702B7
:100F40002B5D01FA02F2861D1A43431D03F00707C9
:100F5000DB082A5501FA07F2EF5CF4083A43EA5439
:100F600006F007022B5D01FA02F200F108061A43AF
:100F7000C31D03F00707DB082A5501FA07F2EF5CEF
:100F8000F6083A43EA54AA5D00F1090303F00707A3
:100F9000DB0842EA0C02AA5501FA07F2EF5C00F105
:100FA0000A06F4083A43EA5406F007022B5D01FAF8
:100FB00002F200F10C061A4300F10B0303F00707DD
:100FC000DB082A5501FA07F2EF5CF4083A43EA54C9
:100FD00006F007022B5D01FA02F200F10E061A4339
:100FE00000F10D0303F00707DB082A5501FA07F2A9
:100FF000EF5CF4083A43EA5406F007022B5D01FA6D
:1010000002F200F110061A4300F10F0303F0070784
:10101000DB082A5501FA07F2EF5CF60811303A4373
:10102000EA54AA5DFF2842EA0C02AA557FF460AF99
:101030005FEA897040F1D6800020012105EBD003E2
:1010400000F00702461C01FA02FC93F8207047EA00
:101050000C0783F8207005EBD60306F00707861C03
:1010600001FA07F793F8204005EBD602274383F8EF
:10107000207006F0070392F82070C61C01FA03F3F3
:101080003B4382F8203005EBD602071D06F007032C
:1010900092F8206001FA03F305EBD704334382F89A
:1010A000203007F0070294F82030471D01FA02F2C1
:1010B0001A4384F8202005EBD70207F00703871DA9
:1010C00001FA03F392F8206005EBD704334382F86A
:1010D000203007F0070294F82030C71D01FA02F211
:1010E0001A4384F8202005EBD70207F0070300F12C
:1010F000080701FA03F392F8206005EBD7073343A2
:1011000082F8203097F8202000F1090342EA0C020F
:1011100087F8202005EBD30200F10A0703F007034C
:1011200092F8206001FA03F305EBD704334382F809
:10113000203007F0070294F8203000F10B0701FA85
:1011400002F21A4384F8202005EBD70207F00703C8
:1011500000F10C0701FA03F392F8206005EBD704C5
:10116000334382F8203007F0070294F8203000F172
:101170000D0701FA02F21A4384F8202005EBD7028A
:1011800007F0070300F10E0701FA03F392F820605D
:1011900005EBD704334382F8203007F0070294F8B8
:1011A000203000F10F0701FA02F21A4384F82020E0
:1011B00005EBD70207F0070300F1100701FA03F36C
:1011C00092F82060113005EBD707FF2843EA0603A9
:1011D00082F8203097F8202042EA0C0287F820207D
:1011E0007FF42CAF5FEA497040F1D68000200121E6
:1011F00005EBD00300F00702461C01FA02FC93F84D
:10120000407047EA0C0783F8407005EBD60306F000
:101210000707861C01FA07F793F8404005EBD60252
:10122000274383F8407006F0070392F84070C61C0D
:1012300001FA03F33B4382F8403005EBD602071D69
:1012400006F0070392F8406001FA03F305EBD704B8
:10125000334382F8403007F0070294F84030471DCE
:1012600001FA02F21A4384F8402005EBD70207F096
:101270000703871D01FA03F392F8406005EBD704DA
:10128000334382F8403007F0070294F84030C71D1E
:1012900001FA02F21A4384F8402005EBD70207F066
:1012A000070300F1080701FA03F392F8406005EB29
:1012B000D707334382F8403097F8402000F1090304
:1012C00042EA0C0287F8402005EBD30200F10A073E
:1012D00003F0070392F8406001FA03F305EBD7042B
:1012E000334382F8403007F0070294F8403000F1B1
:1012F0000B0701FA02F21A4384F8402005EBD702EB
:1013000007F0070300F10C0701FA03F392F84060BD
:1013100005EBD704334382F8403007F0070294F816
:10132000403000F10D0701FA02F21A4384F8402020
:1013300005EBD70207F0070300F10E0701FA03F3EC
:1013400092F8406005EBD704334382F8403007F051
:10135000070294F8403000F10F0701FA02F21A4335
:1013600084F8402005EBD70207F0070300F11007CF
:1013700001FA03F392F84060113005EBD707FF281C
:1013800043EA060382F8403097F8402042EA0C0214
:1013900087F840207FF42CAF5FEA097040F1D680D7
:1013A0000020012105EBD00300F00702461C01FAE2
:1013B00002FC93F8607047EA0C0783F8607005EB55
:1013C000D60306F00707861C01FA07F793F860407A
:1013D00005EBD602274383F8607006F0070392F806
:1013E0006070C61C01FA03F33B4382F8603005EBE2
:1013F000D602071D06F0070392F8606001FA03F3B6
:1014000005EBD704334382F8603007F0070294F805
:101410006030471D01FA02F21A4384F8602005EBA0
:10142000D70207F00703871D01FA03F392F8606003
:1014300005EBD704334382F8603007F0070294F8D5
:101440006030C71D01FA02F21A4384F8602005EBF0
:10145000D70207F0070300F1080701FA03F392F837
:10146000606005EBD707334382F8603097F860205F
:1014700000F1090342EA0C0287F8602005EBD30271
:1014800000F10A0703F0070392F8606001FA03F322
:1014900005EBD704334382F8603007F0070294F875
:1014A000603000F10B0701FA02F21A4384F8602061
:1014B00005EBD70207F0070300F10C0701FA03F36D
:1014C00092F8606005EBD704334382F8603007F090
:1014D000070294F8603000F10D0701FA02F21A4396
:1014E00084F8602005EBD70207F0070300F10E0730
:1014F00001FA03F392F8606005EBD704334382F8F6
:10150000603007F0070294F8603000F10F0701FA2D
:1015100002F21A4384F8602005EBD70207F00703B4
:1015200000F1100701FA03F392F86060113005EB47
:10153000D707FF2843EA060382F8603097F8602057
:1015400042EA0C0287F860207FF42CAF687F012705
:1015500095F83D100BF1180695F85D2040F08000DD
:1015600095F85F30687741F0800085F83D0095F888
:101570007D0042F0800185F85D1040F0800085F824
:101580007D0043F0400085F85F0040F24C05C2F258
:10159000004507E056E8000F46E8001202B1F9E7FF
:1015A00084421BD0DBF8184000F0AEF80146A042A0
:1015B000F0D2D5E84F0FC5E8427F02B1F9E7000647
:1015C000E8D1DBF8100000230130CBF81000D5E89B
:1015D0004F0FC5E8423F02B1F9E7DBE74FF600796C
:1015E000DBF81430C0F20039DBF81C204846FFF766
:1015F0002FF8B8F1000F35D09BF80000002831D14A
:1016000040F24C040127C2F200448BF8007007E05E
:1016100056E8000F46E8001202B1F9E785421BD0F8
:10162000DBF8185000F070F80146A842F0D2D4E878
:101630004F0FC4E8427F02B1F9E70006E8D1DBF8BA
:10164000100000230130CBF81000D4E84F0FC4E89D
:10165000423F02B1F9E7DBE709F101000022002374
:10166000FEF7F6FF504601B0BDE8F08F00F05CF8E1
:101670008246BAF1000F7FF435ACF3E700000000BA
:10168000F0B581B040F28054C2F20044207818B125
:10169000012001B0F0BD00BF40F24C0604F1180774
:1016A000C2F200460120207008E000BF57E8000F9A
:1016B00047E8001202B1F9E7854219D0A56900F0A8
:1016C00023F80146A842F1D20123D6E84F0FC6E81D
:1016D000423F02B1F9E70006E8D12069002301305A
:1016E0002061D6E84F0FC6E8423F02B1F9E7DDE7D7
:1016F0004FF601700022C0F200300023FEF7A8FF71
:10170000012001B0F0BD000041F20400CEF2000063
:10171000006870470000000040F20C00C2F2004078
:1017200000687047000000004EF6FC50CEF200004A
:10173000016841F08071016041F200010120CEF2A8
:1017400000010A6842F001020A60704700000000D0
:10175000B0B5044600F01CF940F204010546C2F29F
:101760000041621C097818BF0C4400BF00F010F95A
:10177000401BA042FAD3B0BD2DE9F04F85B08E4694
:1017800042F20042C5F602020A2102909042DEF8BF
:10179000005008BF0921002D009100F0DD80029863
:1017A000002400F12642009802F1FF7201274FEA5F
:1017B000B2230026092B4FF0000838BF1846CDF899
:1017C0000CE000900EE000BFDEF8005008F10108C8
:1017D00035FA07F006F1020607F1010704F10404E7
:1017E00000F0BA80A7F1010A012000FA0AF315EA15
:1017F0000309E9D0DEF804B00BF003056A1E012AE4
:1018000022D802984FEA4801D0F808C0019103217C
:1018100001FA06F203992CEA020CD1F80CE00EFA58
:1018200006F1DDF80CE041EA0C01816041686FEAE5
:10183000020CCBF3001299430346019802FA0AF214
:10184000114359600CE000BF0320032D00FA06F09D
:10185000029B6FEA000C304602D13046032526E099
:10186000D968DEF8082001EA0C018240022D41EA25
:101870000201D9601BD102466FF0030000EA5A0151
:101880000F20194404F01C0300FA03F51046D1F8A8
:1018900020E0039A2EEA0505DDF80CE012699A4073
:1018A000029B2A430A62DEF804B00BF003051968B4
:1018B00005FA00F001EA0C011BF4403F40EA010088
:1018C00018603FF481AF44F2F44140F20845C5F698
:1018D0000201C5F600050F23086840F00200086009
:1018E000086800F0020004902AF00300049904F054
:1018F0000C0142598B409A43009B03FA01F11143BA
:1019000041514FF0B0452868DEF8041040EA090262
:10191000CB0258BF20EA09028B022A6040F204057C
:10192000C5F60005286840EA090258BF20EA090206
:101930008B032A60D5F8800040EA090258BF20EAEC
:101940000902C903C5F88020E86F40EA090258BFC0
:1019500020EA0902EA6737E705B0BDE8F08F00002A
:10196000426902EA0103914341EA03418161704700
:10197000002A08BF090481617047000000000000D0
:1019800041F20000C5F600400068000C70470000FE
:1019900040F2A450C2F2004000687047000000000E
:1019A00040F2040040F2A451C2F20040C2F20041F1
:1019B00000780A68104408607047000000000000CA
:1019C00080B5032000F0E8F801F052FA44F2184123
:1019D00044F24463C5F60201C0F600030A680968D0
:1019E00001F00F01C2F30322595C9A5C01F01F0160
:1019F00002F01F02D04040F21002C2F2004220FA70
:101A000001F1116040F20C01C2F2004108600F20A8
:101A100000F00AF800281CBF012080BD00F07CF80F
:101A2000002080BD0000000070B540F20406C2F244
:101A300000463178E1B1044640F20C00C2F20040A9
:101A40004FF47A72B2FBF1F10068B0FBF1F001F0F3
:101A50002BFD0F2C4FF0010508D838B94FF0FF309F
:101A600000222146002500F067F87460284670BD0A
:101A7000012070BD00000000B0B502784EF69C5CFD
:101A8000CEF2000C43784CF8043CFAB14368CCF831
:101A90000030037BC17A90F80AE0457B447A42EA41
:101AA0000372837B42EA0161C27B41EACE41007A44
:101AB00041EA854141EA434141EA024141EA0421C8
:101AC00041EA4000CCF80400B0BD00BF0020CCF8D3
:101AD0000000CCF80400B0BD4EF62450CEF2000059
:101AE000BFF35F8F016821F480310160002101673D
:101AF00070470000000000004EF6245140F0010045
:101B0000CEF200010867086840F480300860BFF337
:101B10004F8FBFF36F8F704781B044F2F440C5F62A
:101B20000200016841F002010160006800F002005B
:101B30000090009801B07047B0B54EF60C5C00F014
:101B40000F05CEF2000C043D6544DCF800304FF088
:101B5000FF3CC3F3022E8EF00703042B28BF04239F
:101B6000BEF1030438BF00240CFA03F3B0F1FF3FC9
:101B700021EA030105F10C0300F160450CFA04F0C1
:101B8000C8BF05F56443A14022EA000008430001F4
:101B90001870B0BD000000004EF60C514FF6FF0368
:101BA000CEF200010A681A4060F30A2242F0806017
:101BB00040F0FD7008607047B0B544F60C05C5F6FE
:101BC000020529684907296806D401F00701081AA7
:101BD00018BF0120B0BD00BF21F0070108432860F5
:101BE000FFF7D6FE044600BF55F8080C800407D462
:101BF000FFF7CEFE001BB0F57A7FF5D90120B0BD0E
:101C00000020B0BD0000000080B501F0A9F844F24A
:101C1000204144F24462C5F60201C0F600020968A0
:101C2000C1F30211515C01F01F01C84080BD0000EA
:101C300080B544F2384EC5F6020E5EF8103C5EF8F0
:101C4000101CC1F3053C5EF80C1CBCF1000FDEF863
:101C5000042015D0C1F30011C2F3CC02514300EEB1
:101C6000101A03F003010229B8EE400A0ED089B918
:101C70005EF8381C890611D49FED361A1CE000BFAF
:101C800000218160C0E9001180BD00BF9FED301AC6
:101C900012E000BF9FED2D1A0EE000BF5EF8381C69
:101CA00049F20002C0F2D032C1F3C10122FA01F1BF
:101CB00001EE101AB8EE411ADEF800109FED263A38
:101CC0006FF35F2102EE101ADEF80010C1F3462117
:101CD000B8EE422A00EE032A00EE10CAB7EE003A30
:101CE000B8EE400A81EE000A32EE031A02EE101A34
:101CF000B8EE422A20EE010A32EE031A80EE011AF3
:101D0000BCEEC11A80ED001ADEF80010C1F30641E6
:101D100001EE101AB8EE411A31EE031A80EE011AE4
:101D2000BCEEC11A80ED011ADEF80010C1F30661A5
:101D300001EE101AB8EE411A31EE031A80EE010AD4
:101D4000BCEEC00A10EE101A816080BD0024744AF7
:101D500020BCBE4B0024744C000000390000000081
:101D600080B544F2404EC5F6020E5EF8183C5EF8AF
:101D7000181CC1F3055C5EF8141CBCF1000FDEF802
:101D8000042015D0C1F30021C2F3CC02514300EE70
:101D9000101A03F003010229B8EE400A0ED089B9E7
:101DA0005EF8401C890611D49FED361A1CE000BF76
:101DB00000218160C0E9001180BD00BF9FED301A95
:101DC00012E000BF9FED2D1A0EE000BF5EF8401C30
:101DD00049F20002C0F2D032C1F3C10122FA01F18E
:101DE00001EE101AB8EE411ADEF800109FED263A07
:101DF0006FF35F2102EE101ADEF80010C1F34621E6
:101E0000B8EE422A00EE032A00EE10CAB7EE003AFE
:101E1000B8EE400A81EE000A32EE031A02EE101A02
:101E2000B8EE422A20EE010A32EE031A80EE011AC1
:101E3000BCEEC11A80ED001ADEF80010C1F30641B5
:101E400001EE101AB8EE411A31EE031A80EE011AB3
:101E5000BCEEC11A80ED011ADEF80010C1F3066174
:101E600001EE101AB8EE411A31EE031A80EE010AA3
:101E7000BCEEC00A10EE101A816080BD0024744AC6
:101E800020BCBE4B0024744C000000390000000050
:101E90002DE9F0470446C07844F22C480007C5F607
:101EA000020845D5606E4FEA305103290CD8DFE8AF
:101EB00001F003112F3800BFD8F8001041F40031B1
:101EC000C8F800102DE000BF01266078C0070AD0D6
:101ED00032E000BF201D022101F0DAFC0646F8B115
:101EE0006078C00728D135463746607880073BD4F4
:101EF0003E466078400750D4B1466078000700F154
:101F000067804F46E078800740F15F817AE000BF4C
:101F100004F12400022101F04FFD06460028DFD124
:101F2000606ED8F8241021F440110843C8F824004A
:101F300000266078C007D6D0606D042800F2A68025
:101F40003546DFE800F003ABB10A0A00D8F800001C
:101F5000354640F40030C8F80000002D2F4600F050
:101F6000AD8060788007C3D5A06D4FEAB01004281B
:101F700000F2B480DFE800F004BAC00A0A0000BF33
:101F8000D8F8000040F40030C8F80000002D2E46BC
:101F900000F0BC8060784007AED5D4F8A4004FEACA
:101FA0007050042800F2C280DFE800F004C8CE0AB6
:101FB0000A0000BFD8F8000040F40030C8F8000064
:101FC000002DA94600F0CA80607800077FF599AF20
:101FD000D4F8A8004FEA3060042800F2CF80DFE890
:101FE00000F003D5DB090900D8F8000040F4003008
:101FF000C8F80000002D2F4600F0D880E078800758
:1020000040F1E380A06C4FEA301003281AD8DFE8D3
:1020100000F003212B0300BF2E466DB36078C0068D
:1020200000F1D88037466078800600F1ED803E46AA
:102030006078400600F1FC8037466078000640F189
:10204000BA8109E1012501266078C00600F1C2804D
:10205000E8E700BFD8F8000040F40030C8F80000FE
:10206000002D2E46DAD107E0201D022101F010FCE0
:102070000546002D2E46D1D1D8F82000A16C20F0C5
:10208000300000250843C8F820009EE00125012704
:10209000607880073FF568AF2AE700BF201D002168
:1020A00001F0F6FB05E000BF04F12400002101F07F
:1020B00083FC0546002D2F467FF453AFD8F824004B
:1020C000616D20F0070000250843C8F8240037465A
:1020D000607880077FF50CAF46E700BF0125012639
:1020E000607840073FF559AF06E700BF201D00218B
:1020F00001F0CEFB05E000BF04F12400002101F057
:102100005BFC0546002D2E467FF444AFD8F8240032
:10211000A16D20F4E07000250843C8F824003E4675
:10212000607840077FF5E8AE37E700BF01254FF044
:102130000109607800073FF54BAFE2E6201D002162
:1021400001F0A6FB05E000BF04F12400002101F02E
:1021500033FC0546002DA9467FF436AFD8F82C0095
:10216000D4F8A41020F4600000250843C8F82C001F
:10217000B146607800077FF5C4AE29E70125012745
:10218000E07880073FF53EAF1FE000BF201D002133
:1021900001F07EFB05E000BF04F12400002101F006
:1021A0000BFC0546002D2F467FF428AFD8F82C00F5
:1021B000D4F8A81020F0E06000250843C8F82C00EF
:1021C0004F46E07880073FF51DAF3E466078C00679
:1021D0007FF528AFE06D4FEA3030042800F26C80C4
:1021E000DFE800F00472780A0A0000BFD8F80000A7
:1021F00040F40030C8F80000002D2F4600F0748035
:10220000607880067FF513AF206E4FEA30400528D6
:1022100000F27A80DFE800F004808A04040400BF42
:10222000002D2E4600F08C80607840067FF504AFCC
:10223000D4F8AC004FEA3070052800F29180DFE856
:1022400000F00397A1030303002D2F4600F0A480A4
:102250006078000640F1AF80E06E58B1B0F1005FE9
:1022600010D0B0F1805F1FD1D8F8000040F40030EA
:10227000C8F800002E466DB1E078C00700F0CF80AE
:102280009DE000BF201D012101F002FB0546002D4D
:102290002E46F1D1D8F82400E16E20F04050002500
:1022A0000843C8F8240086E001250126E078C0072D
:1022B00040F08580B3E000BF0125012760788006EB
:1022C0003FF5A2AFB3E600BF201D002101F0E0FA08
:1022D00005E000BF04F12400002101F06DFB05467C
:1022E000002D2F467FF48CAFD8F82400E16D20F448
:1022F000E04000250843C8F824003746607880068F
:102300007FF595AE80E700BF012501266078400685
:102310003FF58EAF90E600BF201D012101F0B8FA15
:102320000546002D2E467FF47FAF09E004F124001E
:10233000012101F041FB0546002D2E467FF474AFCC
:10234000D8F82400216E20F4E02000250843C8F8C6
:1023500024003E46607840067FF56EAE68E700BF19
:1023600001250127607800063FF576AF23E000BF26
:10237000201D012101F08CFA0546002D2F467FF427
:1023800067AF09E004F12400012101F015FB0546C7
:10239000002D2F467FF45CAFD8F82C00D4F8AC1099
:1023A00020F0E04000250843C8F82C00374660784C
:1023B00000063FF551AF3E46E078C0072FD0606C75
:1023C000032809D8DFE800F002101A02A946EDB18F
:1023D000A07840062AD426E001254FF00109A07814
:1023E000400620D522E000BFD8F8000040F40030BD
:1023F000C8F80000002DA946EAD107E0201D0221FF
:1024000001F046FA0546002DA946E1D1D8F8200092
:10241000616C20F0030000250843C8F82000B14695
:10242000A078400602D44F4619E000BFD8F8D40384
:1024300040F48070C8F8D403FFF7AAFA064600BF3C
:10244000D8F8D403C00507D4FFF7A2FA801B64288C
:10245000F6D90325032702E0002D2F4664D020780B
:10246000C00700F0B680A06F4FEAF000052800F228
:102470008D80DFE800F003919B030303002D2E46BF
:1024800000F09E802078800700F1A88037462078F1
:10249000400700F1B7803E462078800600F1C880F2
:1024A00037462078400600F1DB803E462078000663
:1024B00000F1EE8037462068010740F10181D4F831
:1024C0008000B0F5805F09D104F12400022101F001
:1024D00073FA002818BF0127D4F88000D8F8281014
:1024E00021F440510843C8F828002068C10640F193
:1024F000EA80D4F89400B0F5807F09D104F124007B
:10250000022101F059FA002818BF0127D4F89400DD
:10251000D8F82C1021F440710843C8F82C0020682A
:10252000000340F1F780D0E0D8F84410D4F8B000B0
:10253000414011F4407F11D0D8F84410D8F844201D
:1025400042F48032C8F84420D8F8442021F4407185
:1025500022F48032C8F84420C8F84410B0F5807FD7
:1025600040F0AC82FFF714FA064641F2883A0325A0
:10257000032700BFD8F84400800700F19D82FFF7D1
:1025800007FA801B5045F5D969E700BF01250126F0
:102590002078800722D479E7201D012101F078F905
:1025A0000546002D2E467FF46DAF09E004F12400AE
:1025B000012101F001FA0546002D2E467FF462AF9D
:1025C000D8F82800A16F20F0380000250843C8F88B
:1025D00028003E46207880077FF558AF606F0528B9
:1025E00000F28E81DFE810F0060094019E010600E3
:1025F00006000600002D2F4600F09E81207840073F
:102600007FF549AFD4F89000052800F2A581DFE8F6
:1026100010F00700AB01B50107000700070000BF7D
:10262000002D2E4600F0B481207880067FF538AF6B
:10263000D4F88C004FEA3070052800F2B981DFE849
:1026400010F00700BF01C90107000700070000BF25
:10265000002D2F4600F0C881207840067FF525AF79
:10266000D4F898004FEAB020052800F2CD81DFE8C9
:1026700010F00700D301DD0107000700070000BFCD
:10268000002D2E4600F0DC81207800067FF512AF89
:10269000D4F89C004FEA7030052800F2E181DFE8B1
:1026A00010F00700E701F10107000700070000BF75
:1026B000002D2F4600F0F081206801073FF5FFAEA6
:1026C000C1063FF516AF000324D5D4F8A000B0F53D
:1026D000003F0FD0B0F5803F06D0B8BB201D0021D1
:1026E00001F0D6F805E000BF04F12400022101F05A
:1026F00063F905462E461DB1A07840073FD50DE091
:10270000D8F82C00D4F8A01020F44030002508435D
:10271000C8F82C003E46A078400730D5D4F8840095
:10272000B0F5401F0BD0B0F5001F15D0B0F5801FDD
:1027300070D1D8F8000040F40030C8F800002F46EF
:102740009DB1A078C0071ED169E000BF0126012518
:10275000A0784007E2D412E004F12400012101F046
:102760002BF90546002D2F46EBD1D8F82800D4F8D8
:10277000841020F4401000250843C8F8280037468C
:10278000A078C0074BD0E06CB0F5803F2AD0D8BB12
:10279000D8F8000040F40030C8F800002E464DB3D1
:1027A000206881003FD4810348D4C1025DD4C100B8
:1027B00065D481026FD4410078D4B0F1FF3F40F37B
:1027C0008680000208D5D8F82800D4F8881020F4B4
:1027D00040000843C8F82800002E18BF01263046E4
:1027E000BDE8F087201D022101F052F80546002DBA
:1027F0002E46D5D1D8F82000E16C20F48030002599
:102800000843C8F820000AE001260125206881005D
:10281000C9D508E001270125A078C007B3D13E46FD
:1028200020688100BFD504F12400022101F0C4F822
:10283000002818BF012620688103B6D5E16F6FF02C
:10284000010202EB3122022A0AD34FEA31223AB1C5
:10285000012A07D1D8F8002042F40032C8F800203D
:10286000002D41D00126C102A1D5D8F82410226F35
:1028700021F000411143C8F82410C10099D558F83F
:102880001C1CD4F8B42021F48041114348F81C1CCE
:1028900081027FF590AFD8F82410A26E21F08071EC
:1028A0001143C8F8241041007FF587AF58F81C1C6D
:1028B00021F4004148F81C1CD4F8B81058F81C2C1E
:1028C000114348F81C1CB0F1FF3F3FF77AAFD8F82E
:1028D0002010226D21F040511143C8F82010000251
:1028E0007FF57AAF6FE700BFD8F8282022F4407256
:1028F0001143C8F82810C1027FF559AFB5E700BFF2
:1029000001250127207840073FF57CAEC3E500BFD5
:10291000201D012100F0BCFF0546002D2F467FF44D
:102920006DAE09E004F12400012101F045F80546EF
:10293000002D2F467FF462AED8F82800616F20F09A
:10294000070000250843C8F82800374620784007CC
:102950007FF5A1AD56E600BF01260125207880064F
:102960003FF566AE9CE500BF201D012100F090FF01
:102970000546002D2E467FF457AE09E004F12400F1
:10298000012101F019F80546002D2E467FF44CAECA
:10299000D8F82C00D4F8901020F007000025084348
:1029A000C8F82C003E46207880067FF579AD3FE6DA
:1029B00001270125207840063FF552AE75E500BF9E
:1029C000201D002100F064FF0546002D2F467FF4F6
:1029D00043AE09E004F12400022100F0EDFF0546BA
:1029E000002D2F467FF438AED8F82800D4F88C108C
:1029F00020F0E04000250843C8F82800374620783A
:102A000040067FF552AD2BE6012601252078000611
:102A10003FF53EAE4EE500BF201D002100F038FF1F
:102A20000546002D2E467FF42FAE09E004F1240068
:102A3000022100F0C1FF0546002D2E467FF424AE92
:102A4000D8F82C00D4F8981020F4E0500025084362
:102A5000C8F82C003E46207800067FF52BAD17E61F
:102A600001270125206801077FF52AAE27E500BF71
:102A7000201D002100F00CFF0546002D2F467FF49D
:102A80001BAE09E004F12400022100F095FF054689
:102A9000002D2F467FF410AED8F82C00D4F89C10EF
:102AA00020F4604000250843C8F82C003746206811
:102AB00001077FF505AE02E5D4F8B0004FF6CF73FD
:102AC00058F81C2CC0F2FF0300F4407122F47C5231
:102AD00003EA10136FF31F30B1F5407F08BF1A43AC
:102AE000002548F81C2CD8F844100843C8F84400C6
:102AF000FFF799BC000000002DE9F04381B00028E9
:102B000000F02A8142F200080446C5F200288946F6
:102B1000D8F8000000F00F0088420ED2D8F800006C
:102B200020F00F0040EA0900C8F80000D8F80000C3
:102B300000F00F00484540F00F81206844F218472C
:102B40004107C5F602070AD521693A6802F070020A
:102B5000914204D93A6822F07002114339600107AA
:102B60000AD561697A6802F07002914204D97A68E4
:102B700022F0700211437960C1060AD5A1697A6812
:102B800002F4E062914204D97A6822F4E0621143CF
:102B9000796081060AD5E169BA6802F07002914253
:102BA00004D9BA6822F070021143B96010F0020132
:102BB0000AD0E2683B6803F00F039A4204D93B68ED
:102BC00023F00F031A433A60C20746D0386820F456
:102BD0007061D4E90102012841EA0201396009D09B
:102BE00003280DD0022811D157F8181C890340F191
:102BF000B38010E057F8181CC90540F1AD800AE019
:102C000057F8181C890140F1A78004E057F8181CF8
:102C1000490740F1A18057F8081C21F0070108433B
:102C200047F8080CFEF7B4FE064641F2883500BFAF
:102C300057F8080C616800F03800B0EBC10F09D0FC
:102C4000FEF7A6FE801BA842F2D9032001B0BDE822
:102C5000F08300BF206800F0020151B1E1683A68DA
:102C600002F00F02914204D23A6822F00F0211439F
:102C70003960D8F8001001F00F0149450DD9D8F896
:102C8000001021F00F0141EA0901C8F80010D8F83E
:102C9000001001F00F0149455ED141070AD52169B5
:102CA0003A6802F07002914204D23A6822F070024F
:102CB0001143396001070AD561697A6802F0700230
:102CC000914204D27A6822F0700211437960C10601
:102CD0000AD5A1697A6802F4E062914204D27A6866
:102CE00022F4E0621143796080060AD5E069B96890
:102CF00001F07001884204D2B96821F070010843E4
:102D0000B86000F0B5F8396844F244633A68C0F638
:102D10000003C1F3032102F00F02595C9A5C01F039
:102D20001F0120FA01F102F01F0040F2100221FA07
:102D300000F0C2F20042106040F2080040F20C02C3
:102D4000C2F20040C2F200420068116001B0BDE86A
:102D5000F043FEF769BE00BF012001B0BDE8F0837B
:102D600080B500F085F844F2184144F24463C5F69A
:102D70000201C0F600030A68096801F00F01C2F3FE
:102D80000322595C9A5C02F01F0220FA02F201F061
:102D90001F0040F2100122FA00F0C2F20041086068
:102DA00040F20C01C2F200410A6080BD0000000048
:102DB00080B500F05DF844F2184C44F24461C5F669
:102DC000020CC0F60001DCF80020DCF8003003F053
:102DD0000F03C2F30322CB5C8A5C02F01F02D040D7
:102DE00003F01F0240F2100320FA02F2C2F2004385
:102DF0001A6040F20C03C2F200431860DCF80400D1
:102E0000C0F30210085C00F01F0022FA00F080BD41
:102E100080B500F02DF844F2184C44F24461C5F638
:102E2000020CC0F60001DCF80020DCF8003003F0F2
:102E30000F03C2F30322CB5C8A5C02F01F02D04076
:102E400003F01F0240F2100320FA02F2C2F2004324
:102E50001A6040F20C03C2F200431860DCF8040070
:102E6000C0F30220085C00F01F0022FA00F080BDD1
:102E700044F20041C5F602010869C0F3C20003280C
:102E800010D002282CD088BB0868800649F20000C8
:102E9000C0F2D03058BF70470968C1F3C101C840C3
:102EA000704700BF8A6A886AC0F3051CC86ABCF113
:102EB000000F4B6B20D0C3F3CC0300F0010058434C
:102EC00002F00302022A00EE100AB8EE400A15D002
:102ED000C2B90868800619D49FED281A23E000BF04
:102EE00047F64000C0F27D10704700BF40F600106A
:102EF000C0F23D00704700BF002070479FED1E1AD2
:102F000011E000BF9FED1B1A0DE000BF086849F2F9
:102F10000002C0F2D032C0F3C10022FA00F001EE8C
:102F2000100AB8EE411A086B9FED153A6FF35F2057
:102F300002EE100A086BC0F34620B8EE422A0130B8
:102F400000EE032A00EE10CAB7EE003AB8EE400ACF
:102F500081EE000A32EE031A20EE010A01EE100A99
:102F6000B8EE411A80EE010ABCEEC00A10EE100A5B
:102F7000704700BF0024744A20BCBE4B0024744C30
:102F80000000003900000000F0B581B0002800F01A
:102F90005B810446007844F20046C007C5F602068D
:102FA00012D0306900F03801B06A102905D0182914
:102FB0002ED100F0030002282AD13068800303D507
:102FC0006068002800F040812078800740F1A980E7
:102FD000306910F03801B06A2CD0182908BF5FEAB8
:102FE000807027D0E068316800284FD021F01901A7
:102FF00008433060FEF7CCFC054600BF3068400750
:1030000034D4FEF7C5FC401B0228F7D95BE100BFB2
:10301000606800284CD0B0F5A02F61D0B0F5803F9B
:1030200062D0306820F480303060306820F4802036
:103030005DE000BF30684007E06802D5002800F07E
:103040000381316821F0190108433060FEF7A0FCCC
:10305000054600BF3068400708D4FEF799FC401BC6
:1030600002284FF00300F5D919E200BFFEF788FCF3
:1030700041F20301884249D820697168402821F44F
:103080007C314BD141F400304AE000BF21F0010017
:103090003060FEF77DFC05463068400741D5FEF7FD
:1030A00077FC401B02284FF00300F5D9F7E100BF81
:1030B000306820F480303060306820F48020306048
:1030C000FEF766FC054600BF306880037FF57CAFE5
:1030D000FEF75EFC401B64284FF00300F4D9DEE1EC
:1030E000306840F480203060306840F480303060D8
:1030F000FEF74EFC054600BF306880033FF564AF25
:10310000FEF746FC401B6428F6D9DCE070682169B4
:1031100020F0FE4040EA016002E000BF41EA0030DA
:1031200070602078C00654D5306900F03801B06A6C
:10313000082905D0182919D100F00300012815D15C
:103140003068C00503D5E069802840F07D80FEF737
:1031500017FC41F2030188421ED8206A71682028BA
:1031600021F0F84132D141F0804031E0E06900289F
:10317000306819D040F080003060FEF709FC054649
:103180003068C005E3D4FEF703FC401B02284FF073
:103190000300F5D983E100BFF068216A20F07C507C
:1031A00040EA0160F06014E020F080003060FEF73B
:1031B000EFFB05463068C0050BD5FEF7E9FB401B69
:1031C00002284FF00300F5D969E100BF41EA8060B1
:1031D0007060207800073BD4207880064CD420789B
:1031E00040075DD4656A65B3306900F0380018287F
:1031F00040F0A080012DB16A306B25D001F00302B0
:10320000A36A9A4220D1C1F30511E26A91421BD10F
:103210000146226B6FF35F21013A914214D1C0F352
:103220004622616B01398A420ED1C0F30642A16B7E
:1032300001398A4208D1C0F30660E16B0139884246
:1032400002D1002001B0F0BD012001B0F0BD00BFEF
:1032500060690028706F39D040F001007067FEF798
:1032600097FB0546706F8007B6D4FEF791FB401BB5
:103270000228F7D927E000BFA0690028306847D0AE
:1032800040F480503060FEF783FB054630688004D0
:10329000A5D4FEF77DFB401B0228F7D913E000BF41
:1032A000D6F8000440F48070C6F80004FEF770FB06
:1032B000054600BFD6F80004C00519D4FEF768FB28
:1032C000401B6428F6D9032001B0F0BD20F00100B6
:1032D0007067FEF75DFB0546706F80077FF57CAF7A
:1032E000FEF756FB401B02284FF00300F4D9D6E04E
:1032F000A068002840D0052858D001285AD0306F47
:1033000020F001003067306F20F0040055E000BF6E
:1033100020F480503060FEF73BFB054630688004A7
:103320007FF55DAFFEF734FB401B02284FF0030032
:10333000F4D9B4E0306820F080703060FEF728FBEC
:10334000022D05460CD100BF3068800148D5FEF73C
:103350001FFB401B02284FF00300F5D99FE000BF80
:10336000306880017FF56DAFFEF712FB401B02282D
:103370004FF00300F4D992E0306F20F00100306785
:10338000306F20F004003067FEF702FB054641F283
:103390008837306F80077FF525AFFEF7F9FA401BBD
:1033A000B8424FF00300F4D979E000BF306F40F02D
:1033B00004003067306F40F001003067FEF7E8FA34
:1033C000054641F2883700BF306F80073FF50AAFEE
:1033D000FEF7DEFA401BB8424FF00300F4D95EE07E
:1033E00004F12807B06A40F2F33188438ECF0843D6
:1033F000591E40EA02104FF47E426FF35F21B06223
:1034000002EB47204FF4FE0280B2E36B0844A16B4D
:1034100002EB01414FF0FE4201F4FE0102EB0362B8
:10342000084402F0FE4108443063F06A4FF6F87138
:1034300020F00100F062706BA26C884340EAC20089
:103440007063F06A216C20F00C000843F062F06AAF
:10345000616C20F002000843F062F06A40F48030B2
:10346000F062F06A40F40030F062F06A40F48020CC
:10347000F062F06A40F00100F062306840F0807065
:103480003060FEF785FA0446306880013FF5D9AE1A
:10349000FEF77EFA001B02284FF00300F4D901B0BA
:1034A000F0BD000000000000411E0020B0EB116FD5
:1034B00002D00120704700BF4EF21002F023CEF27E
:1034C000000251604EF62351CEF200010B7007212D
:1034D000906011607047000090F88010012901D1C0
:1034E000022070472421C0F8841002681368116814
:1034F00023F0005321F001011160002141661360A7
:103500002022C0F8842080F8801008467047000010
:1035100070B590F88020012A02D1022070BD00BF52
:103520002422C0F884200268D0F864E0BEF1000FC5
:10353000D2F800C0136823F001031360936823F0EE
:10354000606341EA030191601AD0916844F2846E8D
:103550009368C0F6000E5B0F44F28C65C1F34266BF
:10356000C0F600051EF80340E95C2301B3FBF1F14E
:103570001EF80630AE5D1B01B3FBF6F302E000BFA0
:1035800001210123A0F86A102021A0F86830C2F8B8
:1035900000C0C0F88410002180F88010084670BD7B
:1035A00070B590F88020012A02D1022070BD00BFC2
:1035B0002422C0F884200268D0F864E0BEF1000F35
:1035C000D2F800C0136823F001031360936823F05E
:1035D000604341EA030191601AD0916844F2846E1D
:1035E0009368C0F6000E5B0F44F28C65C1F342662F
:1035F000C0F600051EF80340E95C2301B3FBF1F1BE
:103600001EF80630AE5D1B01B3FBF6F302E000BF0F
:1036100001210123A0F86A102021A0F86830C2F827
:1036200000C0C0F88410002180F88010084670BDEA
:10363000B0B582B0B0B10446D0F8840028B90020FB
:1036400084F88000204600F057F82420C4F8840055
:103650002068016821F001010160204600F084FB30
:10366000012803D1012002B0B0BD00BFA06A10B193
:10367000204600F009FB2068416821F49041416038
:10368000816821F02A018160016841F00101016037
:103690000020C4F88C00FEF77BF9216805460A6813
:1036A00012070BD54FF4001100226FF07E400090FE
:1036B00020462B4600F0B4FD70B921680868400729
:1036C0000ED54FF4800100226FF07E40009020461E
:1036D0002B4600F0A5FD18B1032002B0B0BD00BF1D
:1036E0002020C4F88400C4F888000020E06684F834
:1036F000800002B0B0BD000010B5B4B06946044609
:10370000081DB821FCF72EFE41F200012068C4F22A
:103710000101884202D034B010BD00BF01200090EA
:103720006846FEF7B5FB08B1FCF762FE44F2E040E4
:10373000C5F60200016941F010010161016901F063
:1037400010012F912F99016841F00201016000687A
:103750002FA900F002002F902F984FF440402F9097
:10376000022030900020CDE931000420339040F257
:103770000040C5F60200FDF7FFFF34B010BD0000A9
:10378000FEE700000000000070B586B044F2E040A3
:103790000025C5F60200059541F2000400220168EB
:1037A000C5F6020441F0100101600168082601F02D
:1037B000100100910099016841F002010160016867
:1037C00001F0020100910099016841F001010160DE
:1037D0000068082100F00100009000982046FEF7E4
:1037E000C7F8012001A9CDE90205204601960495FC
:1037F000FDF7C2FF06B070BD80B540F2500041F247
:103800000001C2F20040C4F201010C2201604FF439
:10381000E13141600021C0E902110161C0E90521E7
:10382000C0E90711C0E90911FFF702FF08B1FCF771
:10383000DFFD40F250000021C2F20040FFF7B0FE71
:1038400008B1FCF7D5FD40F250000021C2F2004063
:10385000FFF75EFE08B1FCF7CBFD40F25000C2F26C
:103860000040FFF739FE002808BF80BDBDE880405A
:10387000FCF7BEBD00000000FEE7000000000000F5
:10388000FEE700000000000070470000000000009C
:10389000F0B581B044F22C47C5F6020757F8042C66
:1038A00002F00302032A03D1012001B0F0BD00BFE2
:1038B000054657F82C0C0C4620F0806047F82C0C7D
:1038C000FEF766F8064600BF57F82C0C000105D538
:1038D000FEF75EF8801B0228F6D964E057F8040C66
:1038E000EE6895E80E0020F47C30012C40EA0130AF
:1038F000A2F101016FF35F214FF47E4202EB4322FC
:1039000047F8040C92B24FF0FE4302EB01004FF473
:10391000FE012A6901EB064101F4FE0103EB02629C
:10392000084402F0FE410844F8603868696920F0F4
:10393000C00040EA010038603868A96920F0200022
:1039400040EA0100386038684FF6F87120F0100046
:1039500038603869EA6920EA01004FF4001140EA52
:10396000C2003861386808BF4FF4801140F0100081
:10397000002C386008BF4FF40021386808433860D5
:1039800057F82C0C40F0806047F82C0CFEF700F83C
:10399000044600BF57F82C0C000107D4FDF7F8FFD0
:1039A000001B0328F6D3032001B0F0BD002001B0B6
:1039B000F0BD000000000000F0B581B044F22C47DB
:1039C000C5F6020757F8042C02F00302032A03D1BC
:1039D000012001B0F0BD00BF054657F82C0C0C4685
:1039E00020F0805047F82C0CFDF7D2FF064600BFB0
:1039F00057F82C0C800005D5FDF7CAFF801B022864
:103A0000F6D964E057F8040CEE6895E80E0020F053
:103A10007C70012C40EA0150A2F101016FF35F219B
:103A20004FF47E4202EB432247F8040C92B24FF06F
:103A3000FE4302EB01004FF4FE012A6901EB06414F
:103A400001F4FE0103EB0262084402F0FE41084467
:103A500078613868696920F4406040EA01003860A4
:103A60003868A96920F4007040EA010038603868BD
:103A70004FF6F87120F480703860B869EA6920EA7E
:103A800001004FF0807140EAC200B861386808BF99
:103A90004FF4000140F48070002C386008BF4FF4F0
:103AA000800138680843386057F82C0C40F080508B
:103AB00047F82C0CFDF76CFF044600BF57F82C0CA0
:103AC000800007D4FDF764FF001B0328F6D3032012
:103AD00001B0F0BD002001B0F0BD0000000000000A
:103AE0007047000000000000FDF75ABF0000000012
:103AF000B0B59CB044F6180409A84C21C5F60204E0
:103B0000FCF730FC02200025CDE90755CDE905552D
:103B1000CDE90355CDE90155FEF74EF840F22C40B2
:103B20000095C5F60000016821F001010160006800
:103B3000012100F001000090206861F38F302060C7
:103B4000206800F44040009000982068800409D468
:103B5000206880045CBF20685FEA804002D420684F
:103B60008004F2D50220099001200C9040200D9095
:103B700009A800241294FFF707FA28B1EFF3108088
:103B800072B600BFFEE700BF3F200121CDE901046E
:103B90004FF48060CDE9070401A8CDE90344CDE9E5
:103BA0000544FEF7A9FF28B1EFF3108072B600BFFD
:103BB000FEE700BF1CB0B0BD4EF6885042F2000CCC
:103BC000CEF20000C5F2002C016841F470010160E2
:103BD000DCF8000000F00F00062806D8DCF8000032
:103BE000072161F30300CCF8000044F200404EF6D8
:103BF0007F52C5F60200CEF6F622016841F00101BF
:103C000001600021016103681A400260DCF80020B5
:103C1000120706D5DCF80020072363F30302CCF873
:103C2000002040F200228161C161C0F202220162E3
:103C300082620022C0F2FF12C26240F28022C0F211
:103C40000112026341638263C163026441640268DA
:103C500022F480220260016641F20000C5F60040B5
:103C60000068B1EB507F05D148F208100121C5F280
:103C70000010016044F2000043F2D201C5F20020BE
:103C80000160704700000000816ACA070CD18A07F2
:103C900015D44A071ED40A0727D4CA0630D48A0688
:103CA00039D44A0655D541E00268D0F82CC0536893
:103CB00023F4003343EA0C0353608A07E9D5026812
:103CC000D0F830C0536823F4803343EA0C035360C8
:103CD0004A07E0D50268D0F834C0536823F4802343
:103CE00043EA0C0353600A07D7D50268D0F838C0FE
:103CF000536823F4004343EA0C035360CA06CED54D
:103D00000268D0F83CC0936823F4805343EA0C0364
:103D100093608A06C5D50268D0F840C0936823F442
:103D2000005343EA0C0393604A0612D50268D0F8A8
:103D300044C0BCF5801F536823F4801343EA0C038E
:103D4000536006D1536823F4C00C836C43EA0C0320
:103D50005360090658BF70470168C06C4A6822F476
:103D6000002210434860704770B584B00446006874
:103D700004F1080340F6004EE669C5F6000E0ECBCE
:103D8000194363690B4346F6F3110568CCF6FF71DE
:103D9000334329401943016041684FF2FF4321F446
:103DA0004051704541EA02014160A269C1F2FF132E
:103DB0001CBF216A0A43816844F2544C1940C5F67D
:103DC000020C1143816047F2FF72C16AC4F2000223
:103DD00021F00F01656A90424FF0800341EA05012E
:103DE000C16221DD40F6FF71C4F2010188422FDD7E
:103DF000704500F0FB8041F20041C4F201018842AD
:103E000005D041F20001C4F20101884247D1DCF83B
:103E10000010C1F3C202062A80F0F08044F238613B
:103E2000C0F6000139E000BF44F6FF31C4F20001E2
:103E300088421BDC44F20041C4F20001884221D0D8
:103E400044F60001C4F2000188421BD027E000BF05
:103E500047F60001C4F20001884213D047F6004142
:103E6000C4F2000188420DD019E000BF44F60041C1
:103E7000C4F20001884205D045F20001C4F20001FD
:103E800088420CD1DCF8001001F00702062A80F00D
:103E9000B58044F23E61C0F600018B181B78704576
:103EA00040F60010C0F23D0000F0B080B6F5004FC3
:103EB00040F04E80402B4FF0010100F2A281DFE87C
:103EC00013F041001D01A001A0012301A001A001E8
:103ED000A0012B01A001A001A001A001A001A0014F
:103EE000A0013301A001A001A001A001A001A00137
:103EF000A001A001A001A001A001A001A001A001BA
:103F0000A0014301A001A001A001A001A001A00106
:103F1000A001A001A001A001A001A001A001A00199
:103F2000A001A001A001A001A001A001A001A00189
:103F3000A001A001A001A001A001A001A001A00179
:103F4000A0014101FEF734FF002840F0DA80E9E0EB
:103F5000402B4FF0010100F25481DFE813F04100E3
:103F60001301520152011901520152015201210162
:103F700052015201520152015201520152012901D2
:103F80005201520152015201520152015201520199
:103F900052015201520152015201520152013901A2
:103FA0005201520152015201520152015201520179
:103FB0005201520152015201520152015201520169
:103FC0005201520152015201520152015201520159
:103FD0005201520152015201520152015201370164
:103FE000FEF7E6FE002840F0D080DFE0DCF80410A9
:103FF00001F00702062A01D286A14EE78023704510
:1040000040F60010C0F23D007FF450AF9A1E01212F
:104010001E2A27D8DFE812F02000F5002C00F5005A
:10402000F500F5003400F500F500F500F500F500A9
:10403000F500F5003C00F500F500F500F500F50091
:10404000F500F500F500F500F500F500F500F500C8
:10405000F500F500490000BFFDF7D6FDB0B1656A77
:1040600023E000BF402B40F0CC804FF400401CE028
:1040700001A8FDF7DDFD02980028F0D106E000BFA1
:1040800001A8FDF76DFE02980028E8D10021B8E0F4
:104090005CF8540C800649F20000C0F2D03004D520
:1040A0005CF8541CC1F3C101C84044F26C61626801
:1040B000C0F6000131F81510B0FBF1F002EB42013F
:1040C00088424FF00101C0F09C801303984200F237
:1040D0009880010E0023000210EB520041F1000114
:1040E000FCF7F6F84FF60052A0F54071C0F20F024F
:1040F0009142C0F08080012183E000BFFEF788FE7E
:1041000080B1656A20E000BF01A8FDF791FD02982B
:104110000028F6D106E000BF01A8FDF721FE0298B5
:104120000028EED100216CE05CF8540C800649F2C6
:104130000000C0F2D03007D55CF8541CC1F3C101B7
:10414000C84001E04FF4004044F26C61C0F6000149
:1041500031F81510B0FBF1F061684A0802EB40003D
:104160004FF6EF72B0FBF1F0A0F11001914207D8C9
:104170004FF6F0710140C0F3420008443BE000BF3D
:1041800001213EE0FEF744FE80B1656A20E000BFF9
:1041900001A8FDF74DFD02980028F6D106E000BF0A
:1041A00001A8FDF7DDFD02980028EED1002128E0EE
:1041B0005CF8540C800649F20000C0F2D03007D5FC
:1041C0005CF8541CC1F3C101C84001E04FF4004049
:1041D00044F26C616268C0F6000131F81510B0FB62
:1041E000F1F000EB5200B0FBF2F0A0F110014FF63D
:1041F000EF72914204D82168C860002101E000BF3D
:1042000001214FF00110A0660020C4E91C000846FF
:1042100004B070BD0204081020400000000000003F
:104220002DE9F041044600680D46C7693940491B35
:10423000B1FA81F14909914240F0A780DDF8188078
:10424000B8F1000F2AD0164618F1010140F086801F
:10425000C1692940491BB1FA81F14909B14240F0D5
:104260009480C1692940491BB1FA81F14909B142E1
:1042700001BFC1692940491BB1FA81F104BF490955
:10428000B14240F08280C1692940491BB1FA81F1F5
:104290004909B142DCD00020BDE8F081FDF778FB90
:1042A000206850E8000F216820F4D07041E8000237
:1042B000F2B1206850E8000F216820F4D07041E886
:1042C0000002002A1FBF206850E8000F216820F478
:1042D000D0701CBF41E80002002A09D0206850E8D5
:1042E000000F216820F4D07041E80002002AD7D1E5
:1042F000206850E8020F216820F0010041E8020226
:10430000F2B1206850E8020F216820F0010041E876
:104310000202002A1FBF206850E8020F216820F027
:1043200001001CBF41E80202002A09D0206850E8C1
:10433000020F216820F0010041E80202002AD7D1D3
:104340002020C4F8840004F18800202101600020AE
:1043500084F880000320BDE8F08100BF1F4600BF45
:10436000FDF716FBC01B40459AD820680168490735
:1043700044BFC1695FEA01510AD4C0692840401BAB
:10438000B0FA80F04009B042EAD00020BDE8F081E8
:104390004FF40061016200E0206850E8000F2168DE
:1043A00020F4D07041E80002EAB1206850E8000F24
:1043B000216820F4D07041E80002A2B1206850E8E2
:1043C000000F216820F4D07041E80002002A1FBFCE
:1043D000206850E8000F216820F4D0701CBF41E82D
:1043E0000002002AD8D1206850E8020F216820F08E
:1043F000010041E80202F2B1206850E8020F216892
:1044000020F0010041E80202002A1FBF206850E8A6
:10441000020F216820F001001CBF41E80202002ABF
:1044200009D0206850E8020F216820F0010041E81F
:104430000202002AD7D12020C4F88400C4F88800E2
:1044400004F18C0081E70000FEE70000000000009E
:10445000B0B540F20002C2F20042914207D140F2F0
:1044600040050446C2F200452868072802D94FF0EB
:10447000FF30B0BD421C28442A600A2C047118BFCA
:10448000082A08D14FF60060291DC0F20200FCF78F
:104490000FF8002028602046B0BD0000000000009A
:1044A00084B001200090FDF717FB0020019048F236
:1044B0001F70029040F2011003906846FDF7DCFA8D
:1044C0000420FDF719FBFDF77BFAFFF711FBFFF75F
:1044D0005BF9FFF791F90F200021FCF735FB0E2067
:1044E000FE21FE22FCF710FAFDF7CAF844F29464AC
:1044F00041F20006C0F6000436A5C5F6020639A74B
:104500004EF6047068222146FBF77AFF284600F039
:1045100081F84EF624706A222146FBF771FF4FF4B2
:104520007A70FDF715F94FF46F406E222146FBF7C4
:1045300067FF4EF6017070222146FBF761FF4EF6D1
:10454000027072222146FBF75BFF4EF62270732247
:104550002146FBF755FF4EF6217075222146FBF7E9
:104560004FFF4EF6037077222146FBF749FF0821E3
:104570003046FDF7F5F94EF6237079222146FBF718
:104580003FFF4EF605707B222146FBF739FF2320C3
:1045900020212122FBF734FF4EF625707D22214693
:1045A000FBF72EFF4EF606707F222146FBF728FF11
:1045B000252010223946FBF77BFF4EF6267081221C
:1045C0002146FBF71DFF4EF6207083222146FBF7A4
:1045D00017FF95E748656C6C6F205265636F6465E3
:1045E0007221000048656C6C6F205265636F6465D2
:1045F00072210A0002E008C8121F08C1002AFAD17D
:1046000070477047002001E001C1121F002AFBD152
:104610007047000010B5044601E0FFF719FF14F8D9
:10462000010B04490028F8D1BDE810400A20FFF72B
:104630000FBF000000000024010408102040000407
:1046400008102040000000000102030401020304DE
:1046500006070809010001014000000000010024D4
:104660000005002480050024000000000100020075
:104670000400060008000A000C00100020004000A2
:104680008000000101010103070100000804020489
:10469000080101012E2E2F436F72652F5372632F75
:1046A0006D61696E2E630000004700080000002461
:1046B00040000000F4450008404700084000002486
:1046C000681500000446000800000000000000001B
:1046D00000000000000000000000000000000000DA
:1046E00000000000000000000000000000000000CA
:1046F00000000000000000000000000000000000BA
:104700000000000001000000100000000090D00335
:104710000090D00300000000000000000000000036
:104720000000000000000000000000000000000089
:104730000000000000000000000000000000000079
:040000050800029954
:00000001FF
