:020000040800F2
:1000000028100024AD02000801240008692300081C
:10001000F923000841030008B9250008000000008A
:100020000000000000000000000000001124000893
:1000300049030008000000000924000819240008F2
:10004000C7020008C7020008C7020008C70200086C
:10005000C7020008C7020008C7020008C70200085C
:10006000C7020008C7020008C7020008C70200084C
:10007000C7020008C7020008C7020008C70200083C
:10008000C7020008C7020008C7020008C70200082C
:10009000C7020008C7020008C7020008C70200081C
:1000A000C7020008C7020008C7020008C70200080C
:1000B000C7020008C7020008C7020008C7020008FC
:1000C000C7020008C7020008C7020008C7020008EC
:1000D000C7020008C7020008C7020008C7020008DC
:1000E000C7020008C702000800000000C70200089D
:1000F000C7020008C7020008C7020008C7020008BC
:10010000C7020008C7020008C7020008C7020008AB
:10011000C7020008C7020008C7020008C70200089B
:10012000C7020008C7020008C7020008C70200088B
:10013000C7020008C7020008C7020008C70200087B
:1001400000000000000000000000000000000000AF
:10015000C7020008C7020008C7020008C70200085B
:10016000C7020008C7020008C7020008C70200084B
:10017000C7020008C7020008C7020008C70200083B
:10018000C7020008C7020008C7020008C70200082B
:10019000C7020008C7020008C7020008C70200081B
:1001A000C7020008C7020008C7020008C70200080B
:1001B000C7020008C7020008C7020008C7020008FB
:1001C000C7020008C7020008C7020008C7020008EB
:1001D000C7020008C7020008C7020008C7020008DB
:1001E000C7020008C7020008C7020008C7020008CB
:1001F000C7020008C7020008C7020008C7020008BB
:10020000C7020008C7020008C7020008C7020008AA
:10021000C7020008C7020008C7020008C70200089A
:10022000C7020008C7020008C7020008000000005B
:10023000C7020008C702000800000000C70200084B
:10024000C7020008C7020008C7020008C70200086A
:10025000C7020008C7020008C7020008C70200085A
:10026000C7020008C7020008C7020008C70200084A
:10027000C7020008C7020008C7020008000000000B
:10028000C7020008C7020008C702000800000000FB
:1002900000000000C7020008DFF80CD000F03CF8B6
:1002A000004800471126000828100024064880470F
:1002B00006480047FEE7FEE7FEE7FEE7FEE7FEE74B
:1002C000FEE7FEE7FEE7FEE7E924000899020008E2
:1002D00040EA01039B0703D009E008C9121F08C0C8
:1002E000042AFAD203E011F8013B00F8013B521E48
:1002F000F9D27047D2B201E000F8012B491EFBD2BF
:1003000070470022F6E710B513460A460446194620
:10031000FFF7F0FF204610BD064C074D06E0E068F1
:1003200040F0010394E8070098471034AC42F6D33C
:10033000FFF7B6FFF02600082027000800000000A5
:10034000FEE7000000000000704700000000000011
:100350002DE9F04F83B0002982464FF0000000F0F5
:10036000C4809146802A00F2C08040F2C046C2F2AA
:1003700000063078002837D0CAF3C620884640F2FD
:100380004041C2F20001085CCAF30221C840C00724
:100390002AD040F2000B06F11807C2F2000B07E06A
:1003A00057E8000F47E8004101B1F9E785421FD047
:1003B000B56901F0F9F80446A842F1D25A46012382
:1003C000D2E84F0FC2E8413F01B1F9E70006E7D19B
:1003D00030695A46013030610023D2E84F0FC2E83D
:1003E000413F01B1F9E7DBE7012003B0BDE8F08F41
:1003F0005546EFF30580C0F20805002808BF1FFA34
:100400008AF5B9F1000F11D0B9F1080F18D8002002
:100410004146CDE9000068464A46FFF759FF09F01A
:10042000070045EA004000F140704FE00022002341
:100430002846214603B0BDE8F04F00F059B800BF90
:10044000701CD0E84F1F4A1CC0E8432F03B1F8E7E7
:100450004FF4E020D8F8002000EA0146D8F8043034
:1004600045EA0600214600F1807000F041F8A8B38B
:10047000A9F108094FF60170B9F1090F46EA000A1F
:1004800008F1080511D300BF2E6850466F68214659
:1004900032463B4600F02CF820B3A9F10809083594
:1004A000B9F1090F0AF1010AEED200202946CDE97F
:1004B000000068464A46FFF70BFFFF20C7F6FF50D3
:1004C00000EA0A0040EA092040F00070009A019B0F
:1004D000214603B0BDE8F04F00F00AB8002003B099
:1004E000BDE8F08F0020CDE9006703B0BDE8F08FD4
:1004F0002DE9F0474FF080574FF0005607EAD1073B
:1005000040F2C04C9846C2F2000C06EA92064FF048
:100510008044384391468A460CF1040151E8005F5B
:100520006B1C41E8003202B1F8E704EA580230439C
:1005300005F4707340EA020605F03F0040F2400EF9
:1005400046EA8332C2F2000E42F040620EEB001324
:1005500003F10C0454E8007FBD0103D3BFF32F8FD8
:10056000002706E007F00047174344E8007303B193
:10057000F0E77A0100F1DC8051E8000F421C41E80D
:10058000002303B1F8E700F4707200F03F0046EA80
:1005900082320EEB001342F0406203F10C0454E887
:1005A000007FBD0103D3BFF32F8F002706E007F0C4
:1005B0000047174344E8007303B1F0E77A0100F104
:1005C000B78051E8000F421C41E8002303B1F8E76F
:1005D00000F4707200F03F0046EA82320EEB001326
:1005E00042F0406203F10C0454E8007FBD0103D3E4
:1005F000BFF32F8F002706E007F00047174344E8BA
:10060000007303B1F0E77A0100F1928051E8000F26
:10061000421C41E8002303B1F8E700F4707200F0D7
:100620003F0046EA82320EEB001342F0406203F1D3
:100630000C0454E8007FBD0103D3BFF32F8F0027C4
:1006400006E007F00047174344E8007303B1F0E702
:100650007A0100F16D8051E8000F421C41E800234F
:1006600003B1F8E700F4707200F03F0046EA82320E
:100670000EEB001342F0406203F10C0454E8007FDB
:10068000BD0103D3BFF32F8F002706E007F000471B
:10069000174344E8007303B1F0E77A0100F14880A2
:1006A00051E8000F421C41E8002303B1F8E700F4D1
:1006B000707200F03F0046EA82320EEB001342F007
:1006C000406203F10C0454E8007FBD0103D3BFF383
:1006D0002F8F002706E007F00047174344E8007318
:1006E00003B1F0E77A0123D451E8000F421C41E83E
:1006F000002303B1F8E700F4707100F03F0046EA10
:1007000081310EEB001241F0406102F10C0454E81B
:10071000007FBB0103D3BFF32F8F002706E007F054
:1007200000470F4344E8007202B1F0E779012DD58C
:1007300087F0044105010EEB001001F000422AF0A1
:10074000004329F0004628F0004713444EF80530D6
:10075000931943603A44826054E8002F920103D217
:10076000BFF32F8F002004E044E8001303B1F3E748
:10077000012058B10CF1080050E8001F4A1C40E865
:10078000002303B1F8E70120BDE8F0870CF10C006D
:1007900050E8001F4A1C40E8002303B1F8E700209E
:1007A000BDE8F08700000000F0B50023FE2998BFE7
:1007B000FE2A01D91846F0BD91420DD840F2404CB6
:1007C000C307C2F2000C49D1830700F185804307BB
:1007D00000F1C680000701D40120F0BD0CEBD10769
:1007E00001F007060123481C97F8605003FA06F64B
:1007F000904225EA060687F86060DBD80CEBD0074C
:1008000000F00706881C03FA06F697F8605090423D
:1008100025EA060687F86060CCD80CEBD00700F01C
:1008200007060123C81C97F8605003FA06F69042A9
:1008300025EA060687F86060BCD80CEBD00700F00C
:100840000700043103FA00F097F86060914226EA4D
:10085000000087F86000C1D9ACE700BF4FF0010E7F
:100860000B4600BFDD0803F007065C1C0EFA06F617
:100870001CF80570944227EA06060CF80560A3D818
:10088000E50804F007069C1C0EFA06F61CF8057035
:10089000944227EA06060CF8056095D8E50804F0AE
:1008A0000706DC1C0EFA06F61CF80570944227EACF
:1008B00006060CF805603FF687AFE50804F007046C
:1008C00004330EFA04F41CF80560934226EA04048B
:1008D0000CF80540C6D977E74FF0010E0B4600BF74
:1008E0000CEBD30503F007065C1C0EFA06F695F830
:1008F0002070944227EA060685F820603FF667AF2D
:100900000CEBD40504F007069C1C0EFA06F695F8CD
:100910002070944227EA060685F820603FF657AF1C
:100920000CEBD40504F00706DC1C0EFA06F695F86D
:100930002070944227EA060685F820603FF647AF0C
:100940000CEBD40504F0070404330EFA04F495F814
:100950002060934226EA040485F82040C0D936E797
:100960004FF0010E0B4600BF0CEBD30503F007065A
:100970005C1C0EFA06F695F84070944227EA0606CB
:1009800085F840603FF626AF0CEBD40504F007066F
:100990009C1C0EFA06F695F84070944227EA06066B
:1009A00085F840603FF616AF0CEBD40504F007065F
:1009B000DC1C0EFA06F695F84070944227EA06060B
:1009C00085F840603FF606AF0CEBD40504F0070451
:1009D00004330EFA04F495F84060934226EA0404C6
:1009E00085F84040C0D9F5E62DE9F04F81B040F2DE
:1009F000C04B40F24045C2F2000BC2F200058846EF
:100A0000814600208BF8000080212846FFF779FC02
:100A100042F2CC601821C0F600004FF6FF73033895
:100A200041F2210210F8037F83EA07231FB282EA12
:100A30004306B7F1FF3FC8BF5E0033B282EA460704
:100A4000B3F1FF3FC8BF77003BB282EA4706B3F17C
:100A5000FF3FC8BF7E0033B282EA4607B3F1FF3FD3
:100A6000C8BF77003BB282EA4706B3F1FF3FC8BF79
:100A70007E0033B282EA4607B3F1FF3FC8BF77007A
:100A80003BB282EA4706B3F1FF3FC8BF7E0033B2F4
:100A900082EA4607B3F1FF3FC8BF7700437887EA91
:100AA00003231FB282EA4306B7F1FF3FC8BF5E00CF
:100AB00033B282EA4607B3F1FF3FC8BF77003BB2CB
:100AC00082EA4706B3F1FF3FC8BF7E0033B282EA35
:100AD0004607B3F1FF3FC8BF77003BB282EA470643
:100AE000B3F1FF3FC8BF7E0033B282EA4607B3F1DD
:100AF000FF3FC8BF77003BB282EA4706B3F1FF3F32
:100B0000C8BF7E0033B282EA4607B3F1FF3F837865
:100B1000C8BF770087EA03231FB282EA4306B7F112
:100B2000FF3FC8BF5E0033B282EA4607B3F1FF3F22
:100B3000C8BF77003BB282EA4706B3F1FF3FC8BFA8
:100B40007E0033B282EA4607B3F1FF3FC8BF7700A9
:100B50003BB282EA4706B3F1FF3FC8BF7E0033B223
:100B600082EA4607B3F1FF3FC8BF77003BB282EA93
:100B70004706B3F1FF3FC8BF7E0037B282EA4603A3
:100B8000B7F1FF3FC8BF730003397FF44BAF42F2A8
:100B90006B70DBF82010CEF2A510814240F0C680C9
:100BA00099B2BBF80200884240F0C280DBF81C001A
:100BB000002800F10100CBF81C0000F0BE8040F2DC
:100BC00040000021C2F2000006E000BF01F5807184
:100BD000B1F5806F00F09A844218D3685F0135D474
:100BE000D3695F0138D4D36A5F013BD4D36B5F0113
:100BF0003ED4D36C5F0141D4D36D5F0144D4D36E36
:100C00005F0147D4D36F5F014AD4D2F88C305F01C3
:100C10004DD4D2F89C305F0151D4D2F8AC305F0192
:100C200055D4D2F8BC305F0159D4D2F8CC305F0132
:100C30005DD4D2F8DC305F0161D4D2F8EC305F01D2
:100C400065D4D2F8FC305F01C0D569E023F0406381
:100C5000D360D3695F01C6D523F04063D361D36A03
:100C60005F01C3D523F04063D362D36B5F01C0D56E
:100C700023F04063D363D36C5F01BDD523F04063A1
:100C8000D364D36D5F01BAD523F04063D365D36ECF
:100C90005F01B7D523F04063D366D36F5F01B4D54E
:100CA00023F04063D367D2F88C305F01B1D523F0D5
:100CB0004063C2F88C30D2F89C305F01ADD523F090
:100CC0004063C2F89C30D2F8AC305F01A9D523F064
:100CD0004063C2F8AC30D2F8BC305F01A5D523F038
:100CE0004063C2F8BC30D2F8CC305F01A1D523F00C
:100CF0004063C2F8CC30D2F8DC305F019DD523F0E0
:100D00004063C2F8DC30D2F8EC305F0199D523F0B3
:100D10004063C2F8EC30D2F8FC305F017FF556AF8B
:100D200023F04063C2F8FC3050E700BFCBF820004E
:100D3000ABF802300120CBF81C0040F2400040F23A
:100D40000004C2F200004FF4806100268BF80160BD
:100D5000CBE90166C2F20004CBF80C60FFF7D1FAD0
:100D600000F032FC824618B100F026FC01E000BF22
:100D70000020CBE90460CBF818602670BAF1000FB0
:100D800000F0C0835FEAC97000F0A280002001215A
:100D9000C30800F00702461C01FA02FCEF5C06F0F3
:100DA0000704F60847EA0C07EF5401FA04F3AF5DB5
:100DB000841CE2083B43AB5504F00703AF5C01FA27
:100DC00003F33B43C71C07F00706FF08AB5401FAC7
:100DD00006F2EB5D061DF4081A43EA5506F0070219
:100DE0002B5D01FA02F2861D1A43431D03F007072B
:100DF000DB082A5501FA07F2EF5CF4083A43EA549B
:100E000006F007022B5D01FA02F200F108061A4310
:100E1000C31D03F00707DB082A5501FA07F2EF5C50
:100E2000F6083A43EA54AA5D00F1090303F0070704
:100E3000DB0842EA0C02AA5501FA07F2EF5C00F166
:100E40000A06F4083A43EA5406F007022B5D01FA59
:100E500002F200F10C061A4300F10B0303F007073E
:100E6000DB082A5501FA07F2EF5CF4083A43EA542A
:100E700006F007022B5D01FA02F200F10E061A439A
:100E800000F10D0303F00707DB082A5501FA07F20A
:100E9000EF5CF4083A43EA5406F007022B5D01FACE
:100EA00002F200F110061A4300F10F0303F00707E6
:100EB000DB082A5501FA07F2EF5CF60811303A43D5
:100EC000EA54AA5DFF2842EA0C02AA557FF460AFFB
:100ED0005FEA897040F1D6800020012105EBD00344
:100EE00000F00702461C01FA02FC93F8207047EA62
:100EF0000C0783F8207005EBD60306F00707861C65
:100F000001FA07F793F8204005EBD602274383F850
:100F1000207006F0070392F82070C61C01FA03F354
:100F20003B4382F8203005EBD602071D06F007038D
:100F300092F8206001FA03F305EBD704334382F8FB
:100F4000203007F0070294F82030471D01FA02F222
:100F50001A4384F8202005EBD70207F00703871D0A
:100F600001FA03F392F8206005EBD704334382F8CB
:100F7000203007F0070294F82030C71D01FA02F272
:100F80001A4384F8202005EBD70207F0070300F18D
:100F9000080701FA03F392F8206005EBD707334303
:100FA00082F8203097F8202000F1090342EA0C0271
:100FB00087F8202005EBD30200F10A0703F00703AE
:100FC00092F8206001FA03F305EBD704334382F86B
:100FD000203007F0070294F8203000F10B0701FAE7
:100FE00002F21A4384F8202005EBD70207F007032A
:100FF00000F10C0701FA03F392F8206005EBD70427
:10100000334382F8203007F0070294F8203000F1D3
:101010000D0701FA02F21A4384F8202005EBD702EB
:1010200007F0070300F10E0701FA03F392F82060BE
:1010300005EBD704334382F8203007F0070294F819
:10104000203000F10F0701FA02F21A4384F8202041
:1010500005EBD70207F0070300F1100701FA03F3CD
:1010600092F82060113005EBD707FF2843EA06030A
:1010700082F8203097F8202042EA0C0287F82020DE
:101080007FF42CAF5FEA497040F1D6800020012147
:1010900005EBD00300F00702461C01FA02FC93F8AE
:1010A000407047EA0C0783F8407005EBD60306F062
:1010B0000707861C01FA07F793F8404005EBD602B4
:1010C000274383F8407006F0070392F84070C61C6F
:1010D00001FA03F33B4382F8403005EBD602071DCB
:1010E00006F0070392F8406001FA03F305EBD7041A
:1010F000334382F8403007F0070294F84030471D30
:1011000001FA02F21A4384F8402005EBD70207F0F7
:101110000703871D01FA03F392F8406005EBD7043B
:10112000334382F8403007F0070294F84030C71D7F
:1011300001FA02F21A4384F8402005EBD70207F0C7
:10114000070300F1080701FA03F392F8406005EB8A
:10115000D707334382F8403097F8402000F1090365
:1011600042EA0C0287F8402005EBD30200F10A079F
:1011700003F0070392F8406001FA03F305EBD7048C
:10118000334382F8403007F0070294F8403000F112
:101190000B0701FA02F21A4384F8402005EBD7024C
:1011A00007F0070300F10C0701FA03F392F840601F
:1011B00005EBD704334382F8403007F0070294F878
:1011C000403000F10D0701FA02F21A4384F8402082
:1011D00005EBD70207F0070300F10E0701FA03F34E
:1011E00092F8406005EBD704334382F8403007F0B3
:1011F000070294F8403000F10F0701FA02F21A4397
:1012000084F8402005EBD70207F0070300F1100730
:1012100001FA03F392F84060113005EBD707FF287D
:1012200043EA060382F8403097F8402042EA0C0275
:1012300087F840207FF42CAF5FEA097040F1D68038
:101240000020012105EBD00300F00702461C01FA43
:1012500002FC93F8607047EA0C0783F8607005EBB6
:10126000D60306F00707861C01FA07F793F86040DB
:1012700005EBD602274383F8607006F0070392F867
:101280006070C61C01FA03F33B4382F8603005EB43
:10129000D602071D06F0070392F8606001FA03F317
:1012A00005EBD704334382F8603007F0070294F867
:1012B0006030471D01FA02F21A4384F8602005EB02
:1012C000D70207F00703871D01FA03F392F8606065
:1012D00005EBD704334382F8603007F0070294F837
:1012E0006030C71D01FA02F21A4384F8602005EB52
:1012F000D70207F0070300F1080701FA03F392F899
:10130000606005EBD707334382F8603097F86020C0
:1013100000F1090342EA0C0287F8602005EBD302D2
:1013200000F10A0703F0070392F8606001FA03F383
:1013300005EBD704334382F8603007F0070294F8D6
:10134000603000F10B0701FA02F21A4384F86020C2
:1013500005EBD70207F0070300F10C0701FA03F3CE
:1013600092F8606005EBD704334382F8603007F0F1
:10137000070294F8603000F10D0701FA02F21A43F7
:1013800084F8602005EBD70207F0070300F10E0791
:1013900001FA03F392F8606005EBD704334382F857
:1013A000603007F0070294F8603000F10F0701FA8F
:1013B00002F21A4384F8602005EBD70207F0070316
:1013C00000F1100701FA03F392F86060113005EBA9
:1013D000D707FF2843EA060382F8603097F86020B9
:1013E00042EA0C0287F860207FF42CAF687F012767
:1013F00095F83D100BF1180695F85D2040F080003F
:1014000095F85F30687741F0800085F83D0095F8E9
:101410007D0042F0800185F85D1040F0800085F885
:101420007D0043F0400085F85F0040F20005C2F205
:10143000000507E056E8000F46E8001202B1F9E7A0
:1014400084421BD0DBF8184000F0AEF80146A04201
:10145000F0D2D5E84F0FC5E8427F02B1F9E70006A8
:10146000E8D1DBF8100000230130CBF81000D5E8FC
:101470004F0FC5E8423F02B1F9E7DBE74FF60079CD
:10148000DBF81430C0F20039DBF81C204846FFF7C7
:101490002FF8B8F1000F35D09BF80000002831D1AB
:1014A00040F200040127C2F200048BF8007007E04C
:1014B00056E8000F46E8001202B1F9E785421BD05A
:1014C000DBF8185000F070F80146A842F0D2D4E8DA
:1014D0004F0FC4E8427F02B1F9E70006E8D1DBF81C
:1014E000100000230130CBF81000D4E84F0FC4E8FF
:1014F000423F02B1F9E7DBE709F1010000220023D6
:10150000FEF7F6FF504601B0BDE8F08F00F05CF842
:101510008246BAF1000F7FF435ACF3E7000000001B
:10152000F0B581B040F2C044C2F20004207818B196
:10153000012001B0F0BD00BF40F2000604F1180721
:10154000C2F200060120207008E000BF57E8000F3B
:1015500047E8001202B1F9E7854219D0A56900F009
:1015600023F80146A842F1D20123D6E84F0FC6E87E
:10157000423F02B1F9E70006E8D1206900230130BB
:101580002061D6E84F0FC6E8423F02B1F9E7DDE738
:101590004FF601700022C0F200300023FEF7A8FFD2
:1015A000012001B0F0BD000041F20400CEF20000C5
:1015B000006870470000000040F20C00C2F20040DA
:1015C00000687047000000004EF6FC50CEF20000AC
:1015D000016841F08071016041F200010120CEF20A
:1015E00000010A6842F001020A6070470000000032
:1015F000B0B5044600F014F940F204010546C2F209
:101600000041621C097818BF0C4400BF00F008F9C3
:10161000401BA042FAD3B0BD2DE9F04F85B08E46F5
:1016200042F20042C5F602020A2102909042DEF820
:10163000005008BF0921002D009100F0DD800298C4
:10164000002400F12642009802F1FF7201274FEAC0
:10165000B2230026092B4FF0000838BF1846CDF8FA
:101660000CE000900EE000BFDEF8005008F1010829
:1016700035FA07F006F1020607F1010704F1040448
:1016800000F0BA80A7F1010A012000FA0AF315EA76
:101690000309E9D0DEF804B00BF003056A1E012A45
:1016A00022D802984FEA4801D0F808C001910321DE
:1016B00001FA06F203992CEA020CD1F80CE00EFABA
:1016C00006F1DDF80CE041EA0C01816041686FEA47
:1016D000020CCBF3001299430346019802FA0AF276
:1016E000114359600CE000BF0320032D00FA06F0FF
:1016F000029B6FEA000C304602D13046032526E0FB
:10170000D968DEF8082001EA0C018240022D41EA86
:101710000201D9601BD102466FF0030000EA5A01B2
:101720000F20194404F01C0300FA03F51046D1F809
:1017300020E0039A2EEA0505DDF80CE012699A40D4
:10174000029B2A430A62DEF804B00BF00305196815
:1017500005FA00F001EA0C011BF4403F40EA0100E9
:1017600018603FF481AF44F2F44140F20845C5F6F9
:101770000201C5F600050F23086840F0020008606A
:10178000086800F0020004902AF00300049904F0B5
:101790000C0142598B409A43009B03FA01F111431B
:1017A00041514FF0B0452868DEF8041040EA0902C4
:1017B000CB0258BF20EA09028B022A6040F20405DE
:1017C000C5F60005286840EA090258BF20EA090268
:1017D0008B032A60D5F8800040EA090258BF20EA4E
:1017E0000902C903C5F88020E86F40EA090258BF22
:1017F00020EA0902EA6737E705B0BDE8F08F00008C
:10180000002A08BF09048161704700000000000041
:1018100041F20000C5F600400068000C704700006F
:1018200040F22400C2F2004000687047000000004F
:1018300040F2040040F22401C2F20040C2F2004132
:1018400000780A681044086070470000000000003B
:1018500080B5032000F0E8F800F052FA44F2184195
:1018600042F2BC63C5F60201C0F600030A680968CB
:1018700001F00F01C2F30322595C9A5C01F01F01D1
:1018800002F01F02D04040F21002C2F2004220FAE1
:1018900001F1116040F20C01C2F2004108600F201A
:1018A00000F00AF800281CBF012080BD00F07CF881
:1018B000002080BD0000000070B540F20406C2F2B6
:1018C00000463178E1B1044640F20C00C2F200401B
:1018D0004FF47A72B2FBF1F10068B0FBF1F000F066
:1018E0002BFD0F2C4FF0010508D838B94FF0FF3011
:1018F00000222146002500F067F87460284670BD7C
:10190000012070BD00000000B0B502784EF69C5C6E
:10191000CEF2000C43784CF8043CFAB14368CCF8A2
:101920000030037BC17A90F80AE0457B447A42EAB2
:101930000372837B42EA0161C27B41EACE41007AB5
:1019400041EA854141EA434141EA024141EA042139
:1019500041EA4000CCF80400B0BD00BF0020CCF844
:101960000000CCF80400B0BD4EF62450CEF20000CA
:10197000BFF35F8F016821F48031016000210167AE
:1019800070470000000000004EF6245140F00100B6
:10199000CEF200010867086840F480300860BFF3A9
:1019A0004F8FBFF36F8F704781B044F2F440C5F69C
:1019B0000200016841F002010160006800F00200CD
:1019C0000090009801B07047B0B54EF60C5C00F086
:1019D0000F05CEF2000C043D6544DCF800304FF0FA
:1019E000FF3CC3F3022E8EF00703042B28BF042311
:1019F000BEF1030438BF00240CFA03F3B0F1FF3F3B
:101A000021EA030105F10C0300F160450CFA04F032
:101A1000C8BF05F56443A14022EA00000843000165
:101A20001870B0BD000000004EF60C514FF6FF03D9
:101A3000CEF200010A681A4060F30A2242F0806088
:101A400040F0FD7008607047B0B544F60C05C5F66F
:101A5000020529684907296806D401F00701081A18
:101A600018BF0120B0BD00BF21F007010843286066
:101A7000FFF7D6FE044600BF55F8080C800407D4D3
:101A8000FFF7CEFE001BB0F57A7FF5D90120B0BD7F
:101A90000020B0BD000000002DE9F04381B0002817
:101AA00000F02A8142F200080446C5F20028894667
:101AB000D8F8000000F00F0088420ED2D8F80000DD
:101AC00020F00F0040EA0900C8F80000D8F8000034
:101AD00000F00F00484540F00F81206844F218479D
:101AE0004107C5F602070AD521693A6802F070027B
:101AF000914204D93A6822F070021143396001071B
:101B00000AD561697A6802F07002914204D97A6854
:101B100022F0700211437960C1060AD5A1697A6882
:101B200002F4E062914204D97A6822F4E06211433F
:101B3000796081060AD5E169BA6802F070029142C3
:101B400004D9BA6822F070021143B96010F00201A2
:101B50000AD0E2683B6803F00F039A4204D93B685D
:101B600023F00F031A433A60C20746D0386820F4C6
:101B70007061D4E90102012841EA0201396009D00B
:101B800003280DD0022811D157F8181C890340F101
:101B9000B38010E057F8181CC90540F1AD800AE089
:101BA00057F8181C890140F1A78004E057F8181C69
:101BB000490740F1A18057F8081C21F007010843AC
:101BC00047F8080CFFF72CFE064641F2883500BFA7
:101BD00057F8080C616800F03800B0EBC10F09D06D
:101BE000FFF71EFE801BA842F2D9032001B0BDE81A
:101BF000F08300BF206800F0020151B1E1683A684B
:101C000002F00F02914204D23A6822F00F0211430F
:101C10003960D8F8001001F00F0149450DD9D8F806
:101C2000001021F00F0141EA0901C8F80010D8F8AE
:101C3000001001F00F0149455ED141070AD5216925
:101C40003A6802F07002914204D23A6822F07002BF
:101C50001143396001070AD561697A6802F07002A0
:101C6000914204D27A6822F0700211437960C10671
:101C70000AD5A1697A6802F4E062914204D27A68D6
:101C800022F4E0621143796080060AD5E069B96800
:101C900001F07001884204D2B96821F07001084354
:101CA000B86000F02DF8396842F2BC633A68C0F6BB
:101CB0000003C1F3032102F00F02595C9A5C01F0AA
:101CC0001F0120FA01F102F01F0040F2100221FA78
:101CD00000F0C2F20042106040F2080040F20C0234
:101CE000C2F20040C2F200420068116001B0BDE8DB
:101CF000F043FFF7E1BD00BF012001B0BDE8F08374
:101D000044F20041C5F602010869C0F3C20003288D
:101D100010D002282CD088BB0868800649F2000049
:101D2000C0F2D03058BF70470968C1F3C101C84044
:101D3000704700BF8A6A886AC0F3051CC86ABCF194
:101D4000000F4B6B20D0C3F3CC0300F001005843CD
:101D500002F00302022A00EE100AB8EE400A15D083
:101D6000C2B90868800619D49FED281A23E000BF85
:101D700047F64000C0F27D10704700BF40F60010EB
:101D8000C0F23D00704700BF002070479FED1E1A53
:101D900011E000BF9FED1B1A0DE000BF086849F27B
:101DA0000002C0F2D032C0F3C10022FA00F001EE0E
:101DB000100AB8EE411A086B9FED153A6FF35F20D9
:101DC00002EE100A086BC0F34620B8EE422A01303A
:101DD00000EE032A00EE10CAB7EE003AB8EE400A51
:101DE00081EE000A32EE031A20EE010A01EE100A1B
:101DF000B8EE411A80EE010ABCEEC00A10EE100ADD
:101E0000704700BF0024744A20BCBE4B0024744CB1
:101E10000000003900000000F0B581B0002800F09B
:101E20005B810446007844F20046C007C5F602060E
:101E300012D0306900F03801B06A102905D0182995
:101E40002ED100F0030002282AD13068800303D588
:101E50006068002800F040812078800740F1A98068
:101E6000306910F03801B06A2CD0182908BF5FEA39
:101E7000807027D0E068316800284FD021F0190128
:101E800008433060FFF7CCFC054600BF30684007D0
:101E900034D4FFF7C5FC401B0228F7D95BE100BF33
:101EA000606800284CD0B0F5A02F61D0B0F5803F1D
:101EB00062D0306820F480303060306820F48020B8
:101EC0005DE000BF30684007E06802D5002800F000
:101ED0000381316821F0190108433060FFF7A0FC4D
:101EE000054600BF3068400708D4FFF799FC401B47
:101EF00002284FF00300F5D919E200BFFFF788FC74
:101F000041F20301884249D820697168402821F4D0
:101F10007C314BD141F400304AE000BF21F0010098
:101F20003060FFF77DFC05463068400741D5FFF77C
:101F300077FC401B02284FF00300F5D9F7E100BF02
:101F4000306820F480303060306820F480203060C9
:101F5000FFF766FC054600BF306880037FF57CAF65
:101F6000FFF75EFC401B64284FF00300F4D9DEE16C
:101F7000306840F480203060306840F48030306059
:101F8000FFF74EFC054600BF306880033FF564AFA5
:101F9000FFF746FC401B6428F6D9DCE07068216935
:101FA00020F0FE4040EA016002E000BF41EA00305C
:101FB00070602078C00654D5306900F03801B06AEE
:101FC000082905D0182919D100F00300012815D1DE
:101FD0003068C00503D5E069802840F07D80FFF7B8
:101FE00017FC41F2030188421ED8206A716820283C
:101FF00021F0F84132D141F0804031E0E069002821
:10200000306819D040F080003060FFF709FC0546C9
:102010003068C005E3D4FFF703FC401B02284FF0F3
:102020000300F5D983E100BFF068216A20F07C50FD
:1020300040EA0160F06014E020F080003060FFF7BB
:10204000EFFB05463068C0050BD5FFF7E9FB401BE9
:1020500002284FF00300F5D969E100BF41EA806032
:102060007060207800073BD4207880064CD420781C
:1020700040075DD4656A65B3306900F03800182800
:1020800040F0A080012DB16A306B25D001F0030231
:10209000A36A9A4220D1C1F30511E26A91421BD191
:1020A0000146226B6FF35F21013A914214D1C0F3D4
:1020B0004622616B01398A420ED1C0F30642A16B00
:1020C00001398A4208D1C0F30660E16B01398842C8
:1020D00002D1002001B0F0BD012001B0F0BD00BF71
:1020E00060690028706F39D040F001007067FFF719
:1020F00097FB0546706F8007B6D4FFF791FB401B36
:102100000228F7D927E000BFA0690028306847D02F
:1021100040F480503060FFF783FB05463068800450
:10212000A5D4FFF77DFB401B0228F7D913E000BFC1
:10213000D6F8000440F48070C6F80004FFF770FB86
:10214000054600BFD6F80004C00519D4FFF768FBA8
:10215000401B6428F6D9032001B0F0BD20F0010037
:102160007067FFF75DFB0546706F80077FF57CAFFA
:10217000FFF756FB401B02284FF00300F4D9D6E0CE
:10218000A068002840D0052858D001285AD0306FC8
:1021900020F001003067306F20F0040055E000BFF0
:1021A00020F480503060FFF73BFB05463068800428
:1021B0007FF55DAFFFF734FB401B02284FF00300B3
:1021C000F4D9B4E0306820F080703060FFF728FB6D
:1021D000022D05460CD100BF3068800148D5FFF7BD
:1021E0001FFB401B02284FF00300F5D99FE000BF02
:1021F000306880017FF56DAFFFF712FB401B0228AE
:102200004FF00300F4D992E0306F20F00100306706
:10221000306F20F004003067FFF702FB054641F203
:102220008837306F80077FF525AFFFF7F9FA401B3D
:10223000B8424FF00300F4D979E000BF306F40F0AE
:1022400004003067306F40F001003067FFF7E8FAB4
:10225000054641F2883700BF306F80073FF50AAF6F
:10226000FFF7DEFA401BB8424FF00300F4D95EE0FE
:1022700004F12807B06A40F2F33188438ECF084357
:10228000591E40EA02104FF47E426FF35F21B062A4
:1022900002EB47204FF4FE0280B2E36B0844A16BCF
:1022A00002EB01414FF0FE4201F4FE0102EB03623A
:1022B000084402F0FE4108443063F06A4FF6F871BA
:1022C00020F00100F062706BA26C884340EAC2000B
:1022D0007063F06A216C20F00C000843F062F06A31
:1022E000616C20F002000843F062F06A40F4803034
:1022F000F062F06A40F40030F062F06A40F480204E
:10230000F062F06A40F00100F062306840F08070E6
:102310003060FFF785FA0446306880013FF5D9AE9A
:10232000FFF77EFA001B02284FF00300F4D901B03A
:10233000F0BD000000000000411E0020B0EB116F56
:1023400002D00120704700BF4EF21002F023CEF2FF
:10235000000251604EF62351CEF200010B700721AE
:102360009060116070470000FEE700000000000070
:1023700070B586B044F2E0400026C5F6020005962E
:1023800041F2000400220168C5F6020441F0100188
:1023900001600168082501F01001009100990168B1
:1023A00041F004010160016801F00401009100990D
:1023B000016841F0010101600068082100F001009E
:1023C000009000982046FFF71BFA019501AD01200F
:1023D0002946CDE9020620460496FFF71DF94FF481
:1023E00000502946CDE9010602200390A4F50060C3
:1023F000FFF712F906B070BDFEE700000000000014
:10240000FEE7000000000000704700000000000030
:102410007047000000000000FFF70ABA000000004B
:10242000B0B59CB044F6180409A84C21C5F60204C6
:10243000FDF767FF02200025CDE90755CDE90555D9
:10244000CDE90355CDE90155FFF7FEFA40F22C40E6
:102450000095C5F60000016821F0010101600068E7
:10246000012100F001000090206861F38F302060AE
:10247000206800F44040009000982068800409D44F
:10248000206880045CBF20685FEA804002D4206836
:102490008004F2D50220099001200C9040200D907C
:1024A00009A800241294FFF7B7FC28B1EFF31080BD
:1024B00072B600BFFEE700BF3F200121CDE9010455
:1024C00001A8CDE90344CDE90544CDE90744FFF770
:1024D000E3FA28B1EFF3108072B600BFFEE700BF49
:1024E0001CB0B0BD000000004EF6885042F2000C57
:1024F000CEF20000C5F2002C016841F470010160C9
:10250000DCF8000000F00F00062806D8DCF8000018
:10251000072161F30300CCF8000044F200404EF6BE
:102520007F52C5F60200CEF6F622016841F00101A5
:1025300001600021016103681A400260DCF800209C
:10254000120706D5DCF80020072363F30302CCF85A
:10255000002040F200228161C161C0F202220162CA
:1025600082620022C0F2FF12C26240F28022C0F2F8
:102570000112026341638263C163026441640268C1
:1025800022F480220260016641F20000C5F600409C
:102590000068B1EB507F05D148F208100121C5F267
:1025A0000010016044F2000043F2D201C5F20020A5
:1025B0000160704700000000FEE70000000000001E
:1025C000B0B540F20002C2F20042914207D140F29F
:1025D00018050446C2F200452868072802D94FF0C2
:1025E000FF30B0BD421C28442A600A2C047118BF79
:1025F000082A08D14FF60060291DC0F20200FDF73D
:10260000A7FE002028602046B0BD000000000000AA
:1026100084B001200090FFF7A7F90020019048F254
:102620001F70029040F2011003906846FFF76CF9AA
:102630000420FFF7A9F9FFF70BF9FFF7F1FEFFF709
:1026400097FE0F200021FEF7CFF90E20FE21FE227B
:10265000FEF7AAF8FEF764FF42F2E464C0F6000455
:10266000204600F019F800BF204600F015F84FF49E
:10267000FA70FEF7BDFFF7E702E008C8121F08C1B5
:10268000002AFAD170477047002001E001C1121FF3
:10269000002AFBD17047000010B5044601E0FFF7A7
:1026A0008FFF14F8010B04490028F8D1BDE8104051
:1026B0000A20FFF785BF0000000000240000000092
:1026C00001020304010203040607080901000101D5
:1026D000400000004000002040040020C004002012
:1026E0000000000048656C6C6F20455652210000C8
:1026F00020270008000000241800000078260008A9
:102700002027000800000020E404000088260008BC
:102710003827000818000024101000008826000840
:102720000000000001000000100000000090D00335
:082730000090D003000000003E
:040000050800029954
:00000001FF
